:020000040800F2
:1000000000180020DD0800080D070008130700088D
:1000100000000000000000000000000000000000E0
:1000200000000000000000000000000019070008A8
:100030000000000000000000230700082D07000852
:100040005D0900085D0900085D0900085D090008F8
:100050005D0900085D0900085D0900085D090008E8
:100060005D0900085D0900085D0900085D090008D8
:100070005D0900085D0900085D0900085D090008C8
:100080005D09000800000000000000005D09000894
:10009000000000005D0900085D0900085D09000816
:1000A000000000005D0900085D0900083D07000828
:1000B0005D090008000000005D0900085D090008F6
:1000C00010B5064C2378002B07D1054B002B02D02E
:1000D000044800E000BF0123237010BD7800002019
:1000E0000000000024680008044B10B5002B03D06A
:1000F0000349044800E000BF10BDC04600000000F6
:100100007C0000202468000803B4714649084000C0
:100110004900095E49008E4403BC70470022430831
:100120008B4274D303098B425FD3030A8B4244D3BF
:10013000030B8B4228D3030C8B420DD3FF22090201
:1001400012BA030C8B4202D31212090265D0030BC0
:100150008B4219D300E0090AC30B8B4201D3CB03B6
:10016000C01A5241830B8B4201D38B03C01A5241F8
:10017000430B8B4201D34B03C01A5241030B8B42FA
:1001800001D30B03C01A5241C30A8B4201D3CB02E5
:10019000C01A5241830A8B4201D38B02C01A5241CA
:1001A000430A8B4201D34B02C01A5241030A8B42CD
:1001B00001D30B02C01A5241CDD2C3098B4201D3E5
:1001C000CB01C01A524183098B4201D38B01C01A63
:1001D000524143098B4201D34B01C01A52410309DA
:1001E0008B4201D30B01C01A5241C3088B4201D389
:1001F000CB00C01A524183088B4201D38B00C01A36
:10020000524143088B4201D34B00C01A5241411A5C
:1002100000D20146524110467047FFE701B5002069
:1002200000F006F802BDC0460029F7D076E7704717
:100230007047C046F0B5CE46474680B507009946A0
:100240003B0C9C4613041B0C1D000E006146000471
:10025000140C000C45434B4360436143C0182C0C05
:1002600020188C46834203D980235B029846C444FD
:10027000494679437243030C63442D042D0CC9187D
:10028000000440198918C0BCB946B046F0BDC0464C
:1002900080B582B000AF78607B681A68094B1B6834
:1002A0009A420BD10849074B0122180002F082F84C
:1002B000054B1B78303BDAB2044B1A70C046BD4682
:1002C00002B080BDF80000207C010020100000205A
:1002D00080B500AF00F044FB9023D9050E4B0222FD
:1002E000180003F0BEFA00F01FF800F0EBF800F081
:1002F0007BF800F0B7F80949094B0122180002F019
:1003000059F8054B180003F01EFA064B1B7818002D
:1003100004F098FBF5E7C046800100207C01002036
:10032000F80000201000002090B599B000AF2C24F8
:100330003B19180034231A00002105F0B5F91C23DD
:10034000FB18180010231A00002105F0ADF93B1D21
:10035000180018231A00002105F0A6F921007B18C7
:1003600001221A607B1801225A607B1802225A620D
:100370007B18802252029A627B1880225203DA6232
:100380007B1800221A637B18180000F04BFE031E36
:1003900001D000F0EFF81C217B1807221A607B18AF
:1003A00002225A607B1800229A607B180022DA60D1
:1003B0007B180121180001F0BBF9031E01D000F0E9
:1003C000D9F83B1D01221A603B1D00229A603B1D9B
:1003D000180001F027FB031E01D000F0CBF8C04647
:1003E000BD4619B090BD000080B500AF1B4B1C4A44
:1003F0001A601A4B822252005A60184B00229A60EF
:10040000164BE022D200DA60144B00221A61134B23
:1004100000225A61114B802292009A610F4B2022D8
:10042000DA610E4B00221A620C4B00225A620B4B0F
:1004300000229A62094B0722DA62084B00221A63F3
:10044000064B00225A63054B180001F0D9FB031E2E
:1004500001D000F08FF8C046BD4680BD940000205A
:100460000030014080B500AF144B154A1A60134BA1
:10047000E12252025A60114B00229A600F4B002277
:10048000DA600E4B00221A610C4B04225A610B4BAE
:1004900000229A61094B0022DA61084B00221A629D
:1004A000064B00225A62054B180001F02FFF031E75
:1004B00001D000F05FF8C046BD4680BDF8000020C6
:1004C0000038014090B589B000AF0C243B191800EA
:1004D00014231A00002105F0E7F8254B5A69244B34
:1004E0008021C9030A435A61214B5A698023DB03E7
:1004F0001340BB60BB681E4B5A691D4B80218902AB
:100500000A435A611A4B5A6980239B0213407B604D
:100510007B689023DB0500224021180000F065FD78
:100520003B1902221A603B1900225A603B19012232
:100530009A603A199023DB051100180000F0D0FBF7
:1005400021007B1840221A607B1801225A607B1818
:1005500000229A607B180322DA607A189023DB0568
:100560001100180000F0BCFBC046BD4609B090BDAC
:100570000010024080B500AF72B6C046FEE7000032
:1005800080B582B000AF0F4B9A690E4B01210A4330
:100590009A610C4B9B69012213407B607B68094B7D
:1005A000DA69084B802149050A43DA61054BDA69AB
:1005B00080235B0513403B603B68C046BD4602B0EC
:1005C00080BDC0460010024090B58BB000AF78608F
:1005D00014243B19180014231A00002105F064F8B4
:1005E0007B681B681C4A934232D11C4B9A691B4B97
:1005F000802149010A439A61184B9A6980235B0163
:1006000013403B613B69154B5A69144B80218902A9
:100610000A435A61114B5A6980239B021340FB60C5
:10062000FB6821007B18A0221A607B1802225A6006
:100630007B1800229A607B180322DA607B18002264
:100640001A617A189023DB051100180000F048FBAE
:10065000C046BD460BB090BD0030014000100240C6
:1006600090B58BB000AF786014243B1918001423A8
:100670001A00002105F018F87B681B68214A934294
:100680003BD1214B9A69204B8021C9010A439A61D1
:100690001D4B9A698023DB0113403B613B691A4B78
:1006A0005A69194B802189020A435A61164B5A69CB
:1006B00080239B021340FB60FB683B19C022D200E1
:1006C0001A6021007B1802225A607B1800229A606F
:1006D0007B180322DA607B1801221A617A189023B2
:1006E000DB051100180000F0FBFA002200211B209E
:1006F00000F046FA1B2000F058FAC046BD460BB089
:1007000090BDC046003801400010024080B500AFE7
:10071000FEE780B500AFFEE780B500AFC046BD463E
:1007200080BD80B500AFC046BD4680BD80B500AF7E
:1007300000F05EF9C046BD4680BD000080B500AF48
:10074000034B180001F098FEC046BD4680BDC04670
:10075000F800002080B500AF01231800BD4680BD21
:1007600080B582B000AF7860396004F073FF030099
:1007700016221A6001235B421800BD4602B080BDFC
:1007800080B582B000AF786001235A427B681100C7
:100790001800FFF7E5FFFEE780B586B000AFF86010
:1007A000B9607A6000237B610AE000E000BF0100CD
:1007B000BB685A1CBA60CAB21A707B6901337B618C
:1007C0007A697B689A42F0DB7B681800BD4606B008
:1007D00080BD80B586B000AFF860B9607A60002354
:1007E0007B6109E0BB685A1CBA601B78180000E006
:1007F00000BF7B6901337B617A697B689A42F1DBD8
:100800007B681800BD4606B080BD80B582B000AFE1
:10081000786001235B421800BD4602B080BD80B500
:1008200082B000AF786039603B68802292015A60E4
:1008300000231800BD4602B080BD80B582B000AF75
:10084000786001231800BD4602B080BD80B584B039
:1008500000AFF860B9607A6000231800BD4604B0AC
:1008600080BD000080B586B000AF7860144A154B9B
:10087000D31A7B617B693B61134B1B68002B02D150
:10088000114B124A1A60104B1A687B68D3183A69E8
:100890009A4207D204F0DEFE03000C221A60012304
:1008A0005B4209E0084B1B68FB60074B1A687B68DA
:1008B000D218054B1A60FB681800BD4606B080BD13
:1008C00000180020000400009801002050020020C1
:1008D00080B500AFC046BD4680BD000013488546C8
:1008E00013480168090E134A914205D11248134971
:1008F000016013481349016013481449144A002346
:1009000002E0D458C4500433C4188C42F9D3114ABD
:10091000114C002301E013600432A242FBD3FFF725
:10092000D7FF04F09DFEFFF7D3FCFEE70018002080
:10093000040000001F000000181002400100000029
:1009400000000140000000000000002078000020AE
:10095000346A0008780000204C020020FEE7000006
:1009600080B500AF074B1A68064B10210A431A6086
:10097000012000F009F8FFF703FE00231800BD4630
:1009800080BDC0460020024090B583B000AF7860C3
:10099000144B1C68144B1B781900FA239800FFF7BE
:1009A000BDFB030019002000FFF7B8FB030018008F
:1009B00000F00BF9031E01D001230FE07B68032B2D
:1009C0000BD8796801235B420022180000F0D8F8A8
:1009D000064B7A681A60002300E001231800BD4628
:1009E00003B090BD0000002008000020040000209B
:1009F00080B500AF054B1B781A00054B1B68D21859
:100A0000034B1A60C046BD4680BDC04608000020AA
:100A10009C01002080B500AF024B1B681800BD464A
:100A200080BDC0469C01002080B582B000AF0200AE
:100A3000FB1D1A70FB1D1B787F2B09D8FB1D1B7833
:100A40001A001F231A40044B012191400A001A602A
:100A5000C046BD4602B080BD00E100E090B583B065
:100A600000AF02003960FB1D1A70FB1D1B787F2B45
:100A700028D82F4AFB1D1B785BB29B08C0339B0014
:100A80009B58FA1D1278110003220A40D200FF2160
:100A900091400A00D2431A4011003B689B01FF229B
:100AA0001A40FB1D1B78180003230340DB009A400B
:100AB0001F48FB1D1B785BB29B080A43C0339B0099
:100AC0001A5031E01B4AFB1D1B7819000F230B4005
:100AD000083B9B0806339B00D31804331B68FA1DA0
:100AE0001278110003220A40D200FF2191400A002F
:100AF000D2431A4011003B689B01FF221A40FB1DA4
:100B00001B78180003230340DB009A400948FB1DB3
:100B10001B781C000F232340083B9B080A43063325
:100B20009B00C31804331A60C046BD4603B090BD95
:100B300000E100E000ED00E080B582B000AF786039
:100B40007B685A1E80235B049A4201D3012310E084
:100B50000A4B7A68013A5A6001235B42032118006C
:100B6000FFF77CFF054B00229A60044B07221A60B6
:100B700000231800BD4602B080BDC04610E000E072
:100B800080B584B000AFB9607A600F217B18021C79
:100B90001A70BA687B181B785BB211001800FFF757
:100BA0005DFFC046BD4604B080BD80B582B000AFD9
:100BB0000200FB1D1A70FB1D1B785BB21800FFF7CB
:100BC00033FFC046BD4602B080BD80B582B000AFE5
:100BD00078607B681800FFF7AFFF03001800BD4680
:100BE00002B080BD80B582B000AF78607B68212202
:100BF0009B5CDBB2022B08D07B6804229A637B6883
:100C0000202200219954012320E07B681B681A6888
:100C10007B681B680E218A431A607B681B681A6810
:100C20007B681B6801218A431A607B681A6C7B68A9
:100C3000DB6B012191400A005A607B68212201216F
:100C400099547B6820220021995400231800BD4646
:100C500002B080BD80B584B000AF78600F217B18F2
:100C600000221A707B6821229B5CDBB2022B06D02B
:100C70007B6804229A637B1801221A7028E07B6843
:100C80001B681A687B681B680E218A431A607B68A0
:100C90001B681A687B681B6801218A431A607B689D
:100CA0001A6C7B68DB6B012191400A005A607B68FB
:100CB0002122012199547B682022002199547B68CC
:100CC0005B6B002B04D07B685B6B7A6810009847E5
:100CD0000F23FB181B781800BD4604B080BD000030
:100CE00080B586B000AF7860396000237B6149E150
:100CF0003B681B6801217A6991400A001340FB6040
:100D0000FB68002B00D13AE13B685B68032213408B
:100D1000012B05D03B685B6803221340022B30D1C6
:100D20007B689B683B617B695B0003229A401300F0
:100D3000DA433B6913403B613B68DA687B695B00DF
:100D40009A4013003A6913433B617B683A699A60A1
:100D50007B685B683B6101227B699A401300DA4340
:100D60003B6913403B613B685B681B0901221A40E9
:100D70007B699A4013003A6913433B617B683A6987
:100D80005A603B685B6803221340032B17D07B68D3
:100D9000DB683B617B695B0003229A401300DA4306
:100DA0003B6913403B613B689A687B695B009A40F2
:100DB00013003A6913433B617B683A69DA603B6828
:100DC0005B6803221340022B23D17B69DA087B681E
:100DD00008329200D3583B617B69072213409B0085
:100DE0000F229A401300DA433B6913403B613B6892
:100DF0001A697B6907210B409B009A4013003A69EE
:100E000013433B617B69DA087B68083292003969D9
:100E1000D1507B681B683B617B695B0003229A4071
:100E20001300DA433B6913403B613B685B68032274
:100E30001A407B695B009A4013003A6913433B6197
:100E40007B683A691A603B685A68C0239B0213406A
:100E500000D194E0514B9A69504B01210A439A61A9
:100E60004E4B9B6901221340BB60BB684C4A7B69B7
:100E70009B0802339B009B583B617B690322134014
:100E80009B000F229A401300DA433B6913403B61F9
:100E90007A689023DB059A420DD07B68414A9342E1
:100EA00007D07B68404A934201D1022304E0052326
:100EB00002E0012300E000237A6903210A40920046
:100EC00093403A6913433B6135497B699B08023380
:100ED0009B003A695A50354B1B683B61FB68DA430B
:100EE0003B6913403B613B685A6880235B021340B7
:100EF00003D03A69FB6813433B612C4B3A691A6093
:100F00002A4B5B683B61FB68DA433B6913403B61FA
:100F10003B685A6880239B02134003D03A69FB6800
:100F200013433B61214B3A695A60204B9B683B61FC
:100F3000FB68DA433B6913403B613B685A68802396
:100F40005B03134003D03A69FB6813433B61174BC3
:100F50003A699A60154BDB683B61FB68DA433B6991
:100F600013403B613B685A6880239B03134003D0C6
:100F70003A69FB6813433B610C4B3A69DA607B6961
:100F800001337B613B681A687B69DA40131E00D02D
:100F9000AEE6C046C046BD4606B080BD0010024069
:100FA000000001400004004800080048000401401F
:100FB00080B584B000AF78600A00BB1C1A807B68E3
:100FC0001B69BA1C1288134004D00F23FB1801229E
:100FD0001A7003E00F23FB1800221A700F23FB186E
:100FE0001B781800BD4604B080BD80B582B000AF4C
:100FF000786008001100BB1C021C1A807B1C0A1CB4
:101000001A707B1C1B78002B04D0BB1C1A887B68D1
:101010009A6103E0BB1C1A887B689A62C046BD4691
:1010200002B080BD80B588B000AF78607B68002BCF
:1010300002D1012300F076FB7B681B68012213407C
:1010400000D18EE0C54B5B680C221340042B0ED000
:10105000C24B5B680C221340082B17D1BF4B5A6858
:10106000C0235B021A4080235B029A420ED1BB4B25
:101070001A6880239B02134000D171E07B685B6893
:10108000002B00D06CE0012300F04CFB7B685B6818
:10109000012B07D1B14B1A68B04B802149020A439A
:1010A0001A602FE07B685B68002B0CD1AB4B1A6891
:1010B000AA4BAB490A401A60A84B1A68A74BA9492A
:1010C0000A401A601EE07B685B68052B0ED1A34BBB
:1010D0001A68A24B8021C9020A431A609F4B1A6802
:1010E0009E4B802149020A431A600BE09B4B1A6811
:1010F0009A4B9B490A401A60984B1A68974B99493A
:101100000A401A607B685B68002B14D0FFF782FCF2
:101110000300BB6108E0FFF77DFC0200BB69D31A46
:10112000642B01D90323FDE28C4B1A6880239B02B8
:101130001340F0D015E0FFF76DFC0300BB6108E041
:10114000FFF768FC0200BB69D31A642B01D90323A3
:10115000E8E2824B1A6880239B021340F0D100E042
:10116000C0467B681B680222134000D16CE07B4BB9
:101170005B680C2213400ED0784B5B680C22134046
:10118000082B1FD1754B5A68C0235B021A4080237D
:101190001B029A4216D1714B1B680222134005D0E4
:1011A0007B68DB68012B01D00123BBE26B4B1B6822
:1011B000F822934319007B681B69DA00674B0A43E6
:1011C0001A6041E07B68DB68002B24D0634B1A680F
:1011D000624B01210A431A60FFF71CFC0300BB614C
:1011E00008E0FFF717FC0200BB69D31A022B01D9F4
:1011F000032397E2594B1B6802221340F1D0574B4F
:101200001B68F822934319007B681B69DA00534B73
:101210000A431A6018E0514B1A68504B01218A4367
:101220001A60FFF7F7FB0300BB6108E0FFF7F2FB72
:101230000200BB69D31A022B01D9032372E2474B88
:101240001B6802221340F1D17B681B6808221340FF
:1012500036D07B68DB69002B19D0404B5A6A3F4B74
:1012600001210A435A62FFF7D5FB0300BB6108E086
:10127000FFF7D0FB0200BB69D31A022B01D903236D
:1012800050E2364B5B6A02221340F1D018E0334B38
:101290005A6A324B01218A435A62FFF7BBFB0300B3
:1012A000BB6108E0FFF7B6FB0200BB69D31A022B53
:1012B00001D9032336E2294B5B6A02221340F1D1A4
:1012C0007B681B680422134000D1B5E01F203B1847
:1012D00000221A70214BDA6980235B05134010D17C
:1012E0001E4BDA691D4B802149050A43DA611B4B0D
:1012F000DA6980235B051340FB60FB683B18012221
:101300001A70194B1A6880235B0013401AD1164BD0
:101310001A68154B802149000A431A60FFF77AFBCF
:101320000300BB6108E0FFF775FB0200BB69D31A3D
:10133000642B01D90323F5E10B4B1A6880235B0072
:101340001340F0D07B689B68012B0FD1034B1A6AC6
:10135000024B01210A431A6236E0C04600100240E7
:10136000FFFFFEFFFFFFFBFF007000407B689B68F4
:10137000002B0CD1CA4B1A6AC94B01218A431A624D
:10138000C74B1A6AC64B04218A431A621CE07B6869
:101390009B68052B0CD1C24B1A6AC14B04210A432E
:1013A0001A62BF4B1A6ABE4B01210A431A620BE054
:1013B000BB4B1A6ABA4B01218A431A62B84B1A6AAC
:1013C000B74B04218A431A627B689B68002B14D0B8
:1013D000FFF720FB0300BB6109E0FFF71BFB0200E6
:1013E000BB69D31AAF4A934201D903239AE1AC4BAC
:1013F0001B6A02221340F0D013E0FFF70BFB03003F
:10140000BB6109E0FFF706FB0200BB69D31AA54ADE
:10141000934201D9032385E1A14B1B6A02221340A9
:10142000F0D11F23FB181B78012B05D19C4BDA69E7
:101430009B4B9D490A40DA617B681B681022134070
:1014400063D07B685B69012B2AD1954B5A6B944B17
:1014500004210A435A63924B5A6B914B01210A4370
:101460005A63FFF7D7FA0300BB6108E0FFF7D2FA2F
:101470000200BB69D31A022B01D9032352E1884B26
:101480005B6B02221340F1D0854B5B6BF8229343D8
:1014900019007B689B69DA00814B0A435A6334E088
:1014A0007B685B69053311D17D4B5A6B7C4B042102
:1014B0008A435A637A4B5B6BF822934319007B682B
:1014C0009B69DA00764B0A435A631EE0744B5A6BF1
:1014D000734B04210A435A63714B5A6B704B0121C1
:1014E0008A435A63FFF796FA0300BB6108E0FFF7EF
:1014F00091FA0200BB69D31A022B01D9032311E12F
:10150000674B5B6B02221340F1D17B681B68202282
:1015100013405CD0624B5B680C2213400C2B0ED046
:101520005F4B5B680C221340082B14D15C4B5A684C
:10153000C0235B021A40C0235B029A420BD1584B76
:101540005A6B80235B02134040D07B681B6A012BDF
:101550003CD00123E6E07B681B6A002B1BD0504B7C
:101560005A6B4F4B802149020A435A63FFF752FAE4
:101570000300BB6108E0FFF74DFA0200BB69D31A14
:10158000022B01D90323CDE0454B5A6B80235B022C
:101590001340F0D01BE0424B5A6B414B43490A4089
:1015A0005A63FFF737FA0300BB6108E0FFF732FA2E
:1015B0000200BB69D31A022B01D90323B2E0384BD6
:1015C0005A6B80235B021340F0D100E0C0467B6879
:1015D0005B6A002B00D1A4E0314B5B680C22134006
:1015E000082B00D178E07B685B6A022B4CD12C4B36
:1015F0001A682B4B2E490A401A60FFF70BFA0300BA
:10160000BB6108E0FFF706FA0200BB69D31A022BA0
:1016100001D9032386E0224B1A6880239B041340E0
:10162000F0D11F4BDB6A0F22934319007B681A6BC2
:101630001B4B0A43DA621A4B5B681E4A13401900BF
:101640007B68DA6A7B689B6A1A43154B0A435A60C7
:10165000134B1A68124B802149040A431A60FFF7A2
:10166000D9F90300BB6108E0FFF7D4F90200BB69B8
:10167000D31A022B01D9032354E0094B1A688023A3
:101680009B041340F0D04CE0054B1A68044B08490A
:101690000A401A60FFF7BEF90300BB6115E0C046BF
:1016A0000010024088130000FFFFFFEFFFFFFEFF66
:1016B000FFFFFFFEFF7FC2FFFFF7ACF90200BB692F
:1016C000D31A022B01D903232CE0184B1A6880236C
:1016D0009B041340F0D124E07B685B6A012B01D1AD
:1016E00001231FE0114B5B687B61104BDB6A3B61A0
:1016F0007A69C0235B021A407B689B6A9A420ED1CA
:101700003B690F221A407B681B6B9A4207D17A69AA
:10171000F0239B031A407B68DB6A9A4201D00123C5
:1017200000E000231800BD4608B080BD0010024054
:1017300080B584B000AF786039607B68002B01D140
:101740000123BFE0614B1B68012213403A689A42B3
:1017500011D95E4B1B680122934319005B4B3A6819
:101760000A431A60594B1B68012213403A689A4297
:1017700001D00123A6E07B681B680222134015D02C
:101780007B681B680422134006D0514B5A68504BAB
:10179000E021C9000A435A604D4B5B68F022934335
:1017A00019007B689A684A4B0A435A607B681B6839
:1017B000012213404CD07B685B68012B07D1444B5E
:1017C0001A6880239B02134020D101237AE07B68B2
:1017D0005B68022B07D13E4B1A6880239B041340A1
:1017E00014D101236EE07B685B68032B07D1384B73
:1017F0005A6B80235B02134008D1012362E0344B13
:101800001B680222134001D101235BE0304B5B686F
:101810000322934319007B685A682D4B0A435A6090
:10182000FFF7F8F80300FB6009E0FFF7F3F80200A8
:10183000FB68D31A274A934201D9032342E0244B81
:101840005B680C221A407B685B689B009A42ECD173
:101850001E4B1B68012213403A689A4211D21B4B5F
:101860001B68012293431900184B3A680A431A6017
:10187000164B1B68012213403A689A4201D001239B
:1018800020E07B681B680422134009D0104B5B6882
:10189000114A134019007B68DA680D4B0A435A60FD
:1018A00000F020F801000A4B5B681B090F2213406F
:1018B0000A4AD35C0A00DA40094B1A600120FFF79C
:1018C00063F800231800BD4604B080BD002002402C
:1018D0000010024088130000FFF8FFFF5C6800085A
:1018E0000000002090B58FB000AF1423FB18384AD9
:1018F00013CA13C312681A603B1D364A13CA13C3B6
:1019000012681A600023FB620023BB6200237B6322
:1019100000237B6200233B632F4B5B68FB62FB6A07
:101920000C2213400C2B47D049D8042B02D0082B93
:1019300003D044E0294B3B6344E0FB6A9B0C0F223D
:1019400013401422BA18D35C7B62234BDB6A0F224C
:1019500013403A1DD35CBB62FA6AC0235B021A4093
:1019600080235B029A4209D1B96A1C48FEF7D6FB74
:1019700003001A007B6A53437B631AE0FA6AC023B0
:101980005B021A40C0235B029A4209D1B96A14482B
:10199000FEF7C4FB03001A007B6A53437B6308E035
:1019A000B96A0E48FEF7BAFB03001A007B6A53437C
:1019B0007B637B6B3B6305E0094B3B6302E0074BBA
:1019C0003B63C0463B6B1800BD460FB090BDC046A0
:1019D0003C6800084C6800080010024000127A00C1
:1019E000006CDC0280B500AF024B1B681800BD46DE
:1019F00080BDC0460000002080B500AFFFF7F2FFB9
:101A00000100064B5B681B0A07221340044AD35CA3
:101A1000D9400B001800BD4680BDC04600100240F2
:101A20006C68000880B586B000AF786000233B6129
:101A30000023FB607B681A6880235B02134000D19F
:101A40008EE017203B1800221A70674BDA6980235A
:101A50005B05134010D1644BDA69634B8021490563
:101A60000A43DA61604BDA6980235B051340BB608F
:101A7000BB683B1801221A705C4B1A6880235B001C
:101A800013401AD1594B1A68584B802149000A4318
:101A90001A60FEF7BFFF03003B6108E0FEF7BAFFE4
:101AA00002003B69D31A642B01D9032397E04F4B03
:101AB0001A6880235B001340F0D04B4B1A6AC02396
:101AC0009B001340FB60FB68002B34D07B685A6896
:101AD000C0239B001340FA689A422CD0424B1B6AE9
:101AE000434A1340FB60404B1A6A3F4B8021490236
:101AF0000A431A623C4B1A6A3B4B3E490A401A623F
:101B0000394BFA681A62FB680122134013D0FEF7C2
:101B100081FF03003B6109E0FEF77CFF02003B69A7
:101B2000D31A354A934201D9032358E02E4B1B6A3E
:101B300002221340F0D02C4B1B6A2D4A134019008F
:101B40007B685A68284B0A431A621723FB181B78D4
:101B5000012B05D1244BDA69234B28490A40DA616D
:101B60007B681B680122134009D01F4B1B6B0322AB
:101B7000934319007B689A681B4B0A431A637B687E
:101B80001B682022134009D0174B1B6B1022934374
:101B900019007B68DA68144B0A431A637B681A6879
:101BA00080239B02134009D00F4B1B6B8022934371
:101BB00019007B685A690C4B0A431A637B681A68E0
:101BC0008023DB00134009D0074B1B6B402293435B
:101BD00019007B681A69044B0A431A630023180032
:101BE000BD4606B080BDC0460010024000700040F7
:101BF000FFFCFFFFFFFFFEFF88130000FFFFFFEF6A
:101C000080B584B000AF78607B68002B01D10123E0
:101C1000A8E07B685B6A002B09D17B685A68822345
:101C20005B009A4209D07B680022DA6105E07B689C
:101C300000221A617B6800225A617B6800229A6246
:101C40007B685D229B5CDBB2002B07D17B685C224A
:101C5000002199547B681800FEF7B6FC7B685D2272
:101C6000022199547B681B681A687B681B684021B5
:101C70008A431A607B68DA68E023DB009A4202D963
:101C80000023FB6002E080235B01FB607B68DA6875
:101C9000F0231B019A4208D07B68DA68E023DB005E
:101CA0009A4202D07B6800229A627B685A6882233B
:101CB0005B001A407B68996884231B020B401A431F
:101CC0007B681B6902210B401A437B685B69012119
:101CD0000B401A437B68996980239B000B401A4391
:101CE0007B68DB6938210B401A437B681B6A8021C3
:101CF0000B401A4311007B689A6A80239B011A40AB
:101D00007B681B680A431A607B689B691B0C042272
:101D10001A407B685B6A10210B401A437B685B6B3F
:101D200008210B401A437B68D968F0231B010B4044
:101D30001A431100FA6880235B011A407B681B6814
:101D40000A435A607B681B68DA697B681B6807492D
:101D50000A40DA617B6800221A667B685D220121F5
:101D6000995400231800BD4604B080BDFFF7FFFF63
:101D700080B588B000AFF860B9603B60BB1D1A80C9
:101D80001F23FB1800221A70FB685C229B5C012B4E
:101D900001D1022340E1FB685C2201219954FEF746
:101DA00039FE0300BB611623FB18BA1D12881A8086
:101DB000FB685D229B5CDBB2012B04D01F23FB1868
:101DC00002221A701DE1BB68002B03D0BB1D1B88CB
:101DD000002B04D11F23FB1801221A7011E1FB68AC
:101DE0005D2203219954FB6800221A66FB68BA68D9
:101DF0009A63FB68BA1D12889A87FB68BA1D12881D
:101E0000DA87FB6800221A64FB6844220021995299
:101E1000FB68462200219952FB6800221A65FB6884
:101E20000022DA64FB689A6880231B029A4210D170
:101E3000FB681B681A68FB681B6840218A431A60AC
:101E4000FB681B681A68FB681B688021C9010A438C
:101E50001A60FB681B681B6840221340402B07D0A8
:101E6000FB681B681A68FB681B6840210A431A60FC
:101E7000FB68DA68E023DB009A424ED9FB685B68B6
:101E8000002B04D01623FB181B88012B3FD1FB68C5
:101E90009B6B1A88FB681B68DA60FB689B6B9A1C5B
:101EA000FB689A63FB68DB8F9BB2013B9AB2FB68CD
:101EB000DA872CE0FB681B689B6802221340022B28
:101EC00012D1FB689B6B1A88FB681B68DA60FB68A1
:101ED0009B6B9A1CFB689A63FB68DB8F9BB2013B90
:101EE0009AB2FB68DA8712E0FEF794FD0200BB6944
:101EF000D31A3A689A4202D83B68013302D13B6850
:101F0000002B04D11F23FB1803221A7079E0FB6811
:101F1000DB8F9BB2002BCDD14FE0FB685B68002BC1
:101F200004D01623FB181B88012B41D1FB689A6B48
:101F3000FB681B680C3312781A70FB689B6B5A1C89
:101F4000FB689A63FB68DB8F9BB2013B9AB2FB682C
:101F5000DA872DE0FB681B689B6802221340022B86
:101F600013D1FB689A6BFB681B680C3312781A70EC
:101F7000FB689B6B5A1CFB689A63FB68DB8F9BB208
:101F8000013B9AB2FB68DA8712E0FEF743FD0200DC
:101F9000BB69D31A3A689A4202D83B68013302D12E
:101FA0003B68002B04D11F23FB1803221A7028E082
:101FB000FB68DB8F9BB2002BCCD1BA693968FB6818
:101FC000180000F05DF9031E02D0FB6820221A669B
:101FD000FB689B68002B0AD100233B61FB681B68F0
:101FE000DB683B61FB681B689B683B613B69FB6886
:101FF0001B6E002B04D01F23FB1801221A7000E077
:10200000C046FB685D2201219954FB685C220021D7
:1020100099541F23FB181B781800BD4608B080BDDB
:1020200080B588B000AFF860B9603B60FB1D1A70E6
:10203000FEF7F0FC0200BB6A9B1A3A68D318FB61FA
:10204000FEF7E8FC0300BB613A4B1B685B011B0D0C
:10205000FA6953437B6158E03B68013355D0FEF782
:10206000D9FC0200BB69D31AFA699A4202D9FB690A
:10207000002B42D1FB681B685A68FB681B68E02193
:102080008A435A60FB685A6882235B009A4213D1E4
:10209000FB689A6880231B029A4205D0FB689A6805
:1020A0008023DB009A4207D1FB681B681A68FB6833
:1020B0001B6840218A431A60FB689A6A80239B014F
:1020C0009A4210D1FB681B681A68FB681B681A49A2
:1020D0000A401A60FB681B681A68FB681B6880214D
:1020E00089010A431A60FB685D2201219954FB684B
:1020F0005C2200219954032317E07B69002B01D156
:102100000023FB617B69013B7B61FB681B689B686B
:10211000BA681340BA68D31A5A425341DBB21A0064
:10212000FB1D1B789A4297D100231800BD4608B0CA
:1021300080BDC04600000020FFDFFFFF80B58AB0F1
:1021400000AFF860B9607A603B601723FB1800228B
:102150001A70FEF75FFC02003B6B9B1A3A68D318BB
:102160007B62FEF757FC03003B62FB681B680C3385
:10217000FB61414B1A6813009B009B18DA00D31ACD
:102180001B0D7A6A5343BB6168E0BA68C023DB0069
:102190009A420AD17B68002B07D1FB691B78DAB21F
:1021A00017217B181A707B181B783B68013355D0B8
:1021B000FEF730FC02003B6AD31A7A6A9A4202D9CF
:1021C0007B6A002B42D1FB681B685A68FB681B685E
:1021D000E0218A435A60FB685A6882235B009A4276
:1021E00013D1FB689A6880231B029A4205D0FB68D2
:1021F0009A688023DB009A4207D1FB681B681A6843
:10220000FB681B6840218A431A60FB689A6A802336
:102210009B019A4210D1FB681B681A68FB681B6817
:1022200016490A401A60FB681B681A68FB681B683D
:10223000802189010A431A60FB685D2201219954BB
:10224000FB685C2200219954032310E0BB69002B3A
:1022500001D100237B62BB69013BBB61FB681B684A
:102260009B68BA6813407A689A428ED1002318009E
:10227000BD460AB080BDC04600000020FFDFFFFF62
:1022800080B586B002AFF860B9607A60BA68C023E2
:102290005901F8687B68009313000022FFF74EFF96
:1022A000031E07D0FB681B6E20221A43FB681A66C8
:1022B000032327E0BA68F8687B68009313000022C4
:1022C0008021FFF7ADFE031E07D0FB681B6E2022A6
:1022D0001A43FB681A66032314E0BA68C023D900C6
:1022E000F8687B68009313000022FFF727FF031EA6
:1022F00007D0FB681B6E20221A43FB681A66032373
:1023000000E000231800BD4604B080BD80B582B057
:1023100000AF78607B68002B01D1012344E07B682B
:102320009B6F002B07D17B687422002199547B6836
:102330001800FEF795F97B6824229A677B681B6872
:102340001A687B681B6801218A431A607B68180041
:1023500000F086FB0300012B01D1012324E07B6800
:102360005B6A002B03D07B68180000F0B9FC7B6827
:102370001B685A687B681B680D490A405A607B6875
:102380001B689A687B681B682A218A439A607B686D
:102390001B681A687B681B6801210A431A607B6806
:1023A000180000F051FD03001800BD4602B080BDCA
:1023B000FFB7FFFF80B588B000AFF860B960BB1D04
:1023C0001A80FB68DB6F202B50D1BB68002B03D039
:1023D000BB1D1B88002B01D1012348E0FB689A68D4
:1023E00080235B019A4209D1FB681B69002B05D150
:1023F000BB680122134001D0012338E0FB6874223E
:102400009B5C012B01D1022331E0FB687422012186
:102410009954FB6800221A66FB681B685A6880237F
:102420001B04134019D0EFF310833B613B69FB6140
:1024300001237B617B6983F31088C046FB681B68BE
:102440001A68FB681B688021C9040A431A60FB698B
:10245000BB61BB6983F31088C046BB1D1A88B9688D
:10246000FB68180000F0FCFD030000E002231800E8
:10247000BD4608B080BD000090B5ABB000AF78603D
:102480007B681B68DB69A422B9180B607B681B683A
:102490001B68A02039180B607B681B689B689C2117
:1024A00079180B601100BB181B68994A13409822D9
:1024B000BC182360BB181B68002B14D17B181B6849
:1024C000202213400FD03B181B68202213400AD053
:1024D0007B685B6E002B00D196E27B685B6E7A684E
:1024E0001000984790E29823FB181B68002B00D13E
:1024F00014E19C23FB181B680122134006D1A02382
:10250000FB181B68834A134000D107E1A423FB1882
:102510001B680122134012D0A023FB181A688023E5
:102520005B0013400BD07B681B6801221A627B683A
:1025300080229B5801221A437B6880215A50A42391
:10254000FB181B680222134011D09C23FB181B6848
:10255000012213400BD07B681B6802221A627B6841
:1025600080229B5804221A437B6880215A50A4235E
:10257000FB181B680422134011D09C23FB181B6816
:10258000012213400BD07B681B6804221A627B680F
:1025900080229B5802221A437B6880215A50A42330
:1025A000FB181B680822134017D0A023FB181B68D8
:1025B0002022134005D19C23FB181B6801221340E5
:1025C0000BD07B681B6808221A627B6880229B58AC
:1025D00008221A437B6880215A50A423FB181A68EA
:1025E00080231B01134013D0A023FB181A688023FB
:1025F000DB0413400CD07B681B68802212011A6236
:102600007B6880229B5820221A437B6880215A5085
:102610007B6880229B58002B00D1F7E1A423FB1894
:102620001B68202213400ED0A023FB181B68202219
:10263000134008D07B685B6E002B04D07B685B6E18
:102640007A68100098477B6880229B5894217A18FA
:1026500013607B681B689B6840221340402B04D0AA
:102660007B181B682822134047D07B68180000F0B5
:10267000A7FD7B681B689B6840221340402B37D125
:10268000EFF310833B663B6E90203A1813600123F2
:102690007B667B6E83F31088C0467B681B689A68F4
:1026A0007B681B6840218A439A603B181B68BB66A5
:1026B000BB6E83F31088C0467B681B6F002B12D063
:1026C0007B681B6F144A5A637B681B6F1800FEF708
:1026D000C1FA031E1AD07B681B6F5A6B7B681B6F95
:1026E0001800904712E07B68180000F0A5F90DE093
:1026F0007B68180000F0A0F908E07B68180000F083
:102700009BF97B688022002199507FE1C0467DE1E2
:102710000F08000020010004853200087B681B6E52
:10272000012B00D031E1A423FB181B6810221340B9
:1027300000D12AE1A023FB181B681022134000D10E
:1027400023E17B681B6810221A627B681B689B6808
:1027500040221340402B00D09BE07B681B6F1B681E
:102760005A687E217B181A807B181B88002B00D1A9
:102770004EE17B6858229B5A7A1812889A4200D3FD
:1027800046E17B687A185A2112885A527B681B6F7F
:102790009B69202B6ED0EFF310833B633B6BBB67D1
:1027A00001237B637B6B83F31088C0467B681B68C7
:1027B0001A687B681B689A490A401A60BB6FBB6342
:1027C000BB6B83F31088C046EFF31083FB63FB6B96
:1027D0007B6701233B643B6C83F31088C0467B68B6
:1027E0001B689A687B681B6801218A439A607B6F2B
:1027F0007B647B6C83F31088C046EFF31083BB646B
:10280000BB6C3B670123FB64FB6C83F31088C04601
:102810007B681B689A687B681B6840218A439A60C2
:102820003B6F3B653B6D83F31088C0467B6820227D
:10283000DA677B6800221A66EFF310837B657B6D95
:10284000FB660123BB65BB6D83F31088C0467B68C4
:102850001B681A687B681B6810218A431A60FB6E2C
:10286000FB65FB6D83F31088C0467B681B6F180007
:10287000FEF7B8F97B6858229A5A7B685A215B5A4E
:102880009BB2D31A9AB27B681100180000F0DCF8F2
:10289000BEE07B685822995A7B685A229B5A9AB2AA
:1028A0008E203B188A1A1A807B685A229B5A9BB248
:1028B000002B00D1AEE03B181B88002B00D1A9E013
:1028C000EFF31083FB60FB6888243A19136001233F
:1028D0003B613B6983F31088C0467B681B681A68BC
:1028E0007B681B684F490A401A603B191B687B6173
:1028F0007B6983F31088C046EFF31083BB61BB692B
:1029000084243A1913600123FB61FB6983F3108867
:10291000C0467B681B689A687B681B6801218A43F4
:102920009A603B191B683B623B6A83F31088C04680
:102930007B682022DA677B6800221A667B680022A7
:102940005A66EFF310837B627B6A80243A19136026
:102950000123BB62BB6A83F31088C0467B681B6897
:102960001A687B681B6810218A431A603B191B6830
:10297000FB62FB6A83F31088C0463B181A887B68A9
:102980001100180000F060F844E0A423FB181A6856
:1029900080235B03134010D09C23FB181A6880230C
:1029A000DB03134009D07B681B68802252031A6244
:1029B0007B68180000F010FE2FE0A423FB181B68B2
:1029C000802213400FD0A023FB181B6880221340E5
:1029D00009D07B689B6E002B1ED07B689B6E7A684B
:1029E0001000984718E0A423FB181B6840221340EE
:1029F00013D0A023FB181B68402213400DD07B6826
:102A0000180000F056FC08E0C04606E0C04604E0AE
:102A1000C04602E0C04600E0C046BD462BB090BDB7
:102A2000FFFEFFFFDFFEFFFF80B582B000AF7860E2
:102A3000C046BD4602B080BD80B582B000AF7860B0
:102A4000C046BD4602B080BD80B582B000AF7860A0
:102A50000A00BB1C1A80C046BD4602B080BD000003
:102A600080B588B000AF78601E23FB1800221A7072
:102A70007B689A687B681B691A437B685B691A43A9
:102A80007B68DB6913437B617B681B681B688D4A2D
:102A9000134019007B681B687A690A431A607B68D7
:102AA0001B685B68884A134019007B68DA687B689A
:102AB0001B680A435A607B689B697B617B681B6A61
:102AC0007A6913437B617B681B689B687F4A13406C
:102AD00019007B681B687A690A439A607B681B68E7
:102AE0007B4A934227D17B4B1B6B03221340032B62
:102AF0000DD01BD8022B14D018D8002B02D0012BDC
:102B00000AD013E01F23FB1800221A7021E01F23B4
:102B1000FB1802221A701CE01F23FB1804221A70F3
:102B200017E01F23FB1808221A7012E01F23FB185E
:102B300010221A700DE07B681B68674A934204D12B
:102B40001F23FB1800221A7003E01F23FB1810221A
:102B50001A707B68DA6980231B029A425DD11F23B9
:102B6000FB181B78082B15D018DC042B0DD015DCB6
:102B7000002B02D0022B05D010E0FEF73DFF030032
:102B8000BB6112E0554BBB610FE0FEF7ABFE0300EB
:102B9000BB610AE080231B02BB6106E00023BB612E
:102BA0001E23FB1801221A70C046BB69002B00D1FE
:102BB0007BE0BB695A007B685B685B08D2187B6866
:102BC0005B6819001000FDF7A9FA03009BB23B6196
:102BD0003B690F2B1CD93A6980235B029A4217D2BA
:102BE0003B699AB20E203B180F218A431A803B6939
:102BF0005B089BB20722134099B23B183A1812881F
:102C00000A431A807B681B683A181288DA604CE025
:102C10001E23FB1801221A7047E01F23FB181B78A4
:102C2000082B15D018DC042B0DD015DC002B02D09E
:102C3000022B05D010E0FEF7DFFE0300BB6112E0BF
:102C4000264BBB610FE0FEF74DFE0300BB610AE0BF
:102C500080231B02BB6106E00023BB611E23FB181F
:102C600001221A70C046BB69002B1ED07B685B68CE
:102C70005A08BB69D2187B685B6819001000FDF721
:102C80004DFA03009BB23B613B690F2B09D93A69AE
:102C900080235B029A4204D27B681B683A69DA603F
:102CA00003E01E23FB1801221A707B6800225A667B
:102CB0007B6800229A661E23FB181B781800BD460D
:102CC00008B080BDF369FFEFFFCFFFFFFFF4FFFF08
:102CD00000380140001002400044004000127A0019
:102CE00080B582B000AF78607B685B6A01221340D8
:102CF0000BD07B681B685B684A4A134019007B68ED
:102D00009A6A7B681B680A435A607B685B6A022286
:102D100013400BD07B681B685B68434A1340190063
:102D20007B68DA6A7B681B680A435A607B685B6A67
:102D3000042213400BD07B681B685B683B4A13403E
:102D400019007B681A6B7B681B680A435A607B68B2
:102D50005B6A082213400BD07B681B685B68344AAF
:102D6000134019007B685A6B7B681B680A435A60E2
:102D70007B685B6A102213400BD07B681B689B68E2
:102D80002C4A134019007B689A6B7B681B680A43C6
:102D90009A607B685B6A202213400BD07B681B68BB
:102DA0009B68254A134019007B68DA6B7B681B68B7
:102DB0000A439A607B685B6A402213401DD07B689F
:102DC0001B685B681D4A134019007B681A6C7B689E
:102DD0001B680A435A607B681A6C80235B039A4223
:102DE0000BD17B681B685B68154A134019007B6830
:102DF0005A6C7B681B680A435A607B685B6A802256
:102E000013400BD07B681B685B680E4A13401900A7
:102E10007B689A6C7B681B680A435A60C046BD4653
:102E200002B080BDFFFFFDFFFFFFFEFFFFFFFBFFC6
:102E3000FF7FFFFFFFEFFFFFFFDFFFFFFFFFEFFF62
:102E4000FFFF9FFFFFFFF7FF80B586B002AF7860FE
:102E50007B68802200219950FDF7DCFD0300FB60B8
:102E60007B681B681B6808221340082B0CD1FB6889
:102E7000802291037868174A0092002200F02CF813
:102E8000031E01D0032321E07B681B681B6804221A
:102E90001340042B0CD1FB688022D10378680D4AC3
:102EA0000092002200F018F8031E01D003230DE069
:102EB0007B6820229A677B682022DA677B68002281
:102EC0001A667B6874220021995400231800BD46BD
:102ED00004B080BDFFFFFF0180B594B000AFF86083
:102EE000B9603B60FB1D1A70A3E0BB6D013300D1DC
:102EF0009FE0FDF78FFD02003B68D31ABA6D9A423E
:102F000002D3BB6D002B3DD1EFF31083BB62BB6AD4
:102F10007B640123FB62FB6A83F31088C046FB6875
:102F20001B681A68FB681B684C490A401A607B6C76
:102F30003B633B6B83F31088C046EFF310837B63E6
:102F40007B6B3B640123BB63BB6B83F31088C04680
:102F5000FB681B689A68FB681B6801218A439A60BA
:102F60003B6CFB63FB6B83F31088C046FB6820223D
:102F70009A67FB682022DA67FB6874220021995463
:102F8000032367E0FB681B681B680422134050D0D2
:102F9000FB681B68DA6980231B011A4080231B0130
:102FA0009A4246D1FB681B68802212011A62EFF335
:102FB00010833B613B69FB6401237B617B6983F385
:102FC0001088C046FB681B681A68FB681B682349A9
:102FD0000A401A60FB6CBB61BB6983F31088C04672
:102FE000EFF31083FB61FB69BB6401233B623B6A27
:102FF00083F31088C046FB681B689A68FB681B68EF
:1030000001218A439A60BB6C7B627B6A83F31088E0
:10301000C046FB6820229A67FB682022DA67FB68BB
:10302000802220219950FB687422002199540323A7
:1030300010E0FB681B68DB69BA681340BA68D31AF2
:103040005A425341DBB21A00FB1D1B789A4200D151
:103050004BE700231800BD4614B080BD5FFEFFFFA4
:1030600080B58CB000AFF860B960BB1D1A80FB68FA
:10307000BA685A65FB68BA1D582112885A52FB6813
:10308000BA1D5A2112885A52FB6800225A66FB6800
:103090009A6880235B019A420DD1FB681B69002B63
:1030A00004D1FB685C22434999522EE0FB685C2204
:1030B000FF21995229E0FB689B68002B0DD1FB682A
:1030C0001B69002B04D1FB685C22FF2199521CE094
:1030D000FB685C227F21995217E0FB689A68802385
:1030E0005B059A420DD1FB681B69002B04D1FB687C
:1030F0005C227F21995208E0FB685C223F219952B3
:1031000003E0FB685C2200219952FB6880220021C9
:103110009950FB682222DA67EFF31083FB61FB69A9
:10312000FB6201233B623B6A83F31088C046FB6865
:103130001B689A68FB681B6801210A439A60FB6A56
:103140007B627B6A83F31088C046FB689A688023A1
:103150005B019A4207D1FB681B69002B03D1FB6816
:10316000154A5A6602E0FB68144A5A66FB687422E4
:1031700000219954EFF310833B613B69BB6201234B
:103180007B617B6983F31088C046FB681B681A6803
:10319000FB681B68902149000A431A60BB6ABB6147
:1031A000BB6983F31088C04600231800BD460CB0ED
:1031B00080BDC046FF0100007134000809330008DB
:1031C00080B58EB000AF7860EFF310837B617B69D0
:1031D0007B630123BB61BB6983F31088C0467B68B6
:1031E0001B681A687B681B6825490A401A607B6B5C
:1031F000FB61FB6983F31088C046EFF310833B62E9
:103200003B6A3B6301237B627B6A83F31088C04681
:103210007B681B689A687B681B6801218A439A60F7
:103220003B6BBB62BB6A83F31088C0467B681B6E36
:10323000012B18D1EFF31083BB60BB68FB62012345
:10324000FB60FB6883F31088C0467B681B681A68C4
:103250007B681B6810218A431A60FB6A3B613B69EB
:1032600083F31088C0467B682022DA677B680022DF
:103270001A667B6800225A66C046BD460EB080BD05
:10328000DFFEFFFF80B584B000AF78607B685B6ACB
:10329000FB60FB685A2200219952FB6852220021F0
:1032A0009952FB681800FFF7C7FBC046BD4604B043
:1032B00080BD80B586B000AF7860EFF31083BB604F
:1032C000BB687B610123FB60FB6883F31088C04609
:1032D0007B681B681A687B681B6840218A431A60F8
:1032E0007B693B613B6983F31088C0467B68202281
:1032F0009A677B6800229A667B681800FFF794FB48
:10330000C046BD4606B080BD80B590B000AF7860C5
:103310003E203B187A685C21525A1A807B68DB6F2A
:10332000222B00D095E07B681A683C217B18928C98
:103330001A807B181B88DAB23B181B88D9B27B68CD
:103340005B6D0A40D2B21A707B685B6D5A1C7B6859
:103350005A657B685A229B5A9BB2013B99B27B68A3
:103360005A2299527B685A229B5A9BB2002B78D1E1
:10337000EFF31083BB61BB69BB630123FB61FB6996
:1033800083F31088C0467B681B681A687B681B68DB
:1033900036490A401A60BB6B3B623B6A83F3108874
:1033A000C046EFF310837B627B6A7B630123BB62C1
:1033B000BB6A83F31088C0467B681B689A687B6889
:1033C0001B6801218A439A607B6BFB62FB6A83F373
:1033D0001088C0467B682022DA677B6800225A6624
:1033E0007B681B6E012B2FD17B6800221A66EFF3DE
:1033F0001083FB60FB683B6301233B613B6983F304
:103400001088C0467B681B681A687B681B6810219F
:103410008A431A603B6B7B617B6983F31088C046EB
:103420007B681B68DB6910221340102B03D17B687B
:103430001B6810221A627B6858229A5A7B68110016
:103440001800FFF701FB0CE07B681800FCF720FF79
:1034500007E07B681B689A697B681B6808210A4340
:103460009A61C046BD4610B080BDC046DFFEFFFF7A
:1034700080B590B000AF78603E203B187A685C2140
:10348000525A1A807B68DB6F222B00D095E07B6854
:103490001A683C217B18928C1A807B685B6DBB6339
:1034A0007B183A181B88128813409AB2BB6B1A809B
:1034B0007B685B6D9A1C7B685A657B685A229B5AB5
:1034C0009BB2013B99B27B685A2299527B685A227F
:1034D0009B5A9BB2002B78D1EFF310837B617B6901
:1034E0007B630123BB61BB6983F31088C0467B68A3
:1034F0001B681A687B681B6836490A401A607B6B38
:10350000FB61FB6983F31088C046EFF310833B62D5
:103510003B6A3B6301237B627B6A83F31088C0466E
:103520007B681B689A687B681B6801218A439A60E4
:103530003B6BBB62BB6A83F31088C0467B6820226A
:10354000DA677B6800225A667B681B6E012B2FD1DD
:103550007B6800221A66EFF31083BB60BB68FB62D6
:103560000123FB60FB6883F31088C0467B681B68FF
:103570001A687B681B6810218A431A60FB6A3B61EA
:103580003B6983F31088C0467B681B68DB691022A7
:103590001340102B03D17B681B6810221A627B68D2
:1035A00058229A5A7B6811001800FFF74DFA0CE078
:1035B0007B681800FCF76CFE07E07B681B689A6963
:1035C0007B681B6808210A439A61C046BD4610B05B
:1035D00080BDC046DFFEFFFF80B582B000AF7860DF
:1035E000C046BD4602B080BD80B584B000AF0023A8
:1035F000FB6007E02F4AFB68D31800221A70FB68B3
:103600000133FB60FB68072BF4DD2B4B00221A70A3
:103610002A4B1B78002B02D0012B23D045E0264BF0
:1036200081221A70234BFF22DA71224BDA79214B67
:103630001A700123BB6007E01E4ABB68D3188122C1
:103640001A70BB680133BB60BB68062BF4DD1A4BF4
:103650001A78184B1100180001F0C0FF174B012217
:103660001A7022E0144B7E221A70124B8122DA71FA
:10367000104BDA790F4B1A7001237B6007E00D4A7B
:103680007B68D31800221A707B6801337B607B68EB
:10369000062BF4DD084B1A78064B1100180001F0D8
:1036A0009DFF064B00221A70C046C046BD4604B0BE
:1036B00080BDC046A4010020A0010020AC01002074
:1036C00080B582B000AF0C4B05221A700B4B002264
:1036D0001A7000237B6007E0094A7B68D318002238
:1036E0001A707B6801337B607B68072BF4DDC04672
:1036F000C046BD4602B080BD10000020A0010020E1
:10370000A401002080B582B000AF78600A00BB1C25
:103710001A80C046BD4602B080BD80B582B000AF01
:1037200078600A00BB1C1A80C046BD4602B080BD4E
:1037300080B582B000AF78600A00BB1C1A80C0461A
:10374000BD4602B080BDB0B584B000AF78607B6884
:103750001A697B689B8A0F257C1919001000FDF7F8
:1037600027FC030023707B689B787A1912789A42B1
:103770000BD07B687A1912789A707B680122DA7014
:10378000FDF748F902007B689A607B68DB78002BC4
:103790000ED0FDF73FF902007B689B68D31A0E2B11
:1037A00006D97B689A787B681A707B680022DA7089
:1037B0007B681A787B685B789A4235D07B681B7887
:1037C000002B10D17B6801221A717B681A697B6813
:1037D0009B8A1900100001F0FFF8FDF71BF90200A9
:1037E0007B68DA601CE0FDF715F902007B68DB6896
:1037F000D21AFA239B009A4207D87B681A697B6821
:103800009B8A19001000FFF77DFF7B681A697B68AF
:103810009B8A19001000FFF780FF7B6800221A7155
:103820007B681A787B685A707B681B79002B14D0F0
:10383000FDF7F0F802007B68DB68D21AFA23DB00A0
:103840009A420AD37B681A697B689B8A1900100028
:10385000FFF76EFF7B6800221A71C046BD4604B0B8
:10386000B0BD80B584B000AFF860B960BB1D1A80F0
:10387000FB68BA681A61FB68BA1D12889A82C04652
:10388000BD4604B080BD80B584B000AF0B23FB18EB
:1038900000221A700023FB6007E03A00FB68D3188F
:1038A00000221A70FB680133FB60FB68072BF4DD14
:1038B0000B23FB181A783B001100180001F08EFE54
:1038C000C046BD4604B080BD80B500AFC14B1B787B
:1038D000092B00D984E29A00BF4BD3181B689F467E
:1038E000FDF798F80200BD4B1B68D31A462293429D
:1038F0002FD3BB4B1B68012B08D1BA4B1B68072B7E
:1039000004DCB84B1B685A1CB64B1A60B54B1B68DD
:10391000072B02DDB24B00221A60B14B1B68002B53
:1039200008D1B04B1B68002B04DDAE4B1B685A1E40
:10393000AC4B1A60AB4B1B68002B05D1A84B012286
:103940001A60A44B08221A70FDF764F80200A34B1A
:103950001A60A44B1B68180000F076FA41E2FDF7EC
:1039600059F802009D4B1B68D31A462293422FD36D
:103970009B4B1B68012B08D19A4B1B68072B04DC5F
:10398000984B1B685A1C974B1A60964B1B68072B69
:1039900002DD934B00221A60914B1B68002B08D16B
:1039A000904B1B68002B04DD8E4B1B685A1E8D4B01
:1039B0001A608C4B1B68002B05D1894B01221A60C1
:1039C000844B07221A70FDF725F80200834B1A601A
:1039D000844B1B68180000F079FA02E2FDF71AF830
:1039E00002007E4B1B68D31A462293422FD37C4B96
:1039F0001B68012B08D17B4B1B68072B04DC794B20
:103A00001B685A1C774B1A60764B1B68072B02DD2C
:103A1000734B00221A60724B1B68002B08D1714B4C
:103A20001B68002B04DD6F4B1B685A1E6D4B1A6020
:103A30006C4B1B68002B05D1694B01221A60654B4A
:103A400006221A70FCF7E6FF0200644B1A60654B11
:103A50001B68180000F05EFAC3E1FCF7DBFF020010
:103A60005E4B1B68D31A462293422FD35C4B1B68D4
:103A7000012B08D15B4B1B68072B04DC594B1B68DF
:103A80005A1C584B1A60574B1B68072B02DD544BCE
:103A900000221A60524B1B68002B08D1514B1B6847
:103AA000002B04DD4F4B1B685A1E4E4B1A604D4BCA
:103AB0001B68002B05D14A4B01221A60454B052299
:103AC0001A70FCF7A7FF0200444B1A60454B1B68B5
:103AD000180000F055FA84E1FCF79CFF02003F4B10
:103AE0001B68D31A462293422FD33D4B1B68012BF0
:103AF00008D13C4B1B68072B04DC3A4B1B685A1C53
:103B0000384B1A60374B1B68072B02DD344B002201
:103B10001A60334B1B68002B08D1324B1B68002BFB
:103B200004DD304B1B685A1E2E4B1A602D4B1B6850
:103B3000002B05D12A4B01221A60264B04221A7051
:103B4000FCF768FF0200254B1A60264B1B68180023
:103B500000F062FA45E1FCF75DFF02001F4B1B68B5
:103B6000D31A462293422FD31D4B1B68012B08D139
:103B70001C4B1B68072B04DC1A4B1B685A1C194B87
:103B80001A60184B1B68072B02DD154B00221A60C8
:103B9000134B1B68002B08D1124B1B68002B04DD54
:103BA000104B1B685A1E0F4B1A600E4B1B68002BE4
:103BB00005D10B4B01221A60064B03221A70FCF749
:103BC00029FF0200054B1A60064B1B68180000F025
:103BD0006FFA06E10900002074680008B8010020AF
:103BE0000C000020BC010020FCF714FF02007E4BFB
:103BF0001B68D31A462293422FD37C4B1B68012BA0
:103C000008D17B4B1B68072B04DC794B1B685A1CC3
:103C1000774B1A60764B1B68072B02DD734B002233
:103C20001A60724B1B68002B08D1714B1B68002B6C
:103C300004DD6F4B1B685A1E6D4B1A606C4B1B6882
:103C4000002B05D1694B01221A606A4B02221A70BF
:103C5000FCF7E0FE0200644B1A60654B1B6818001D
:103C600000F06CFABDE0FCF7D5FE02005E4B1B686D
:103C7000D31A462293422FD35C4B1B68012B08D1E9
:103C80005B4B1B68072B04DC594B1B685A1C584BB9
:103C90001A60574B1B68072B02DD544B00221A6039
:103CA000524B1B68002B08D1514B1B68002B04DDC5
:103CB0004F4B1B685A1E4E4B1A604D4B1B68002B16
:103CC00005D14A4B01221A604A4B01221A70FCF7B7
:103CD000A1FE0200444B1A60454B1B68180000F01F
:103CE00065FA7EE0FCF796FE02003F4B1B68D31A94
:103CF000462293422FD33D4B1B68012B08D13C4BEE
:103D00001B68072B04DC3A4B1B685A1C384B1A60A3
:103D1000374B1B68072B02DD344B00221A60334BF4
:103D20001B68002B08D1324B1B68002B04DD304B85
:103D30001B685A1E2E4B1A602D4B1B68002B05D199
:103D40002A4B01221A602B4B00221A70FCF762FEEC
:103D50000200254B1A60264B1B68180000F07CFA05
:103D60003FE0FCF757FE02001F4B1B68D31A4622A8
:103D700093422FD31D4B1B68012B08D11C4B1B6892
:103D8000072B04DC1A4B1B685A1C194B1A60184B82
:103D90001B68072B02DD154B00221A60134B1B68B2
:103DA000002B08D1124B1B68002B04DD104B1B6845
:103DB0005A1E0F4B1A600E4B1B68002B05D10B4B84
:103DC00001221A600B4B09221A70FCF723FE020035
:103DD000054B1A60064B1B68180000F089FA00E0DA
:103DE000C046C046BD4680BDB80100200C00002082
:103DF000BC0100200900002080B582B000AF0E4B4E
:103E000006221A700D4B09221A700D4B01221A60FE
:103E100000237B6007E00B4A7B68D31800221A70EE
:103E20007B6801337B607B68072BF4DDC046C046AE
:103E3000BD4602B080BDC046100000200900002031
:103E40000C000020B001002080B582B000AF786087
:103E50001D4A7B68D3187E221A701B4B81211800E3
:103E600001F0BCFB184A7B68D318C3221A70164BAA
:103E70006021180001F0B2FB134A7B68D3180322BB
:103E80001A70114B0C21180001F0A8FB0E4A7B6838
:103E9000D318FF221A700C4B0221180001F09EFB70
:103EA000094A7B68D3187F221A70074B102118002B
:103EB00001F094FB044A7B68D31800221A70C046B4
:103EC000BD4602B080BDC046B001002080B582B0C2
:103ED00000AF78600E4A7B68D318C3221A700C4B6F
:103EE0006621180001F07AFB094A7B68D3187E220C
:103EF0001A70074B9921180001F070FB044A7B6887
:103F0000D31800221A70C046BD4602B080BDC0461C
:103F1000B001002080B584B000AF7860174A7B689C
:103F2000D318FF221A70154BC021180001F056FB60
:103F30000023FB6016E00322FB689A401300D9B20D
:103F40000E4A7B68D3180A1C1A702022FB681A419B
:103F50001300DAB2094B1100180001F03FFBFB68B7
:103F60000133FB60FB68052BE5DD044A7B68D31851
:103F700000221A70C046BD4604B080BDB0010020CA
:103F800080B582B000AF7860224A7B68D318FF22E8
:103F90001A70204B4221180001F020FB1D4A7B685B
:103FA000D318C3221A701B4B0C21180001F016FB0A
:103FB000184A7B68D3187F221A70164B802118008C
:103FC00001F00CFB134A7B68D318C0221A70114B06
:103FD0002021180001F002FB0E4A7B68D318FE2254
:103FE0001A700C4B1021180001F0F8FA094A7B688E
:103FF000D3187E221A70074B0121180001F0EEFA47
:10400000044A7B68D31800221A70C046BD4602B02D
:1040100080BDC046B001002080B582B000AF78609E
:10402000224A7B68D318FF221A70204BC021180047
:1040300001F0D4FA1D4A7B68D318C0221A701B4BBA
:104040002021180001F0CAFA184A7B68D318FE2212
:104050001A70164B1021180001F0C0FA134A7B6841
:10406000D31803221A70114B0C21180001F0B6FA74
:104070000E4A7B68D31883221A700C4B0221180059
:1040800001F0ACFA094A7B68D3187E221A70074BFC
:104090000121180001F0A2FA044A7B68D31800221B
:1040A0001A70C046BD4602B080BDC046B0010020B7
:1040B00080B584B000AF78601E4A7B68D3180622B2
:1040C0001A701C4BF321180001F088FA194A7B681A
:1040D000D318FF221A70174B0C21180001F07EFA3A
:1040E0000023FB601AE00822FB689A401300D9B253
:1040F000104A7B68D3180A1C1A708022FB681A4188
:104100001300DAB20C4B1A700B4B1A78094B1100E2
:10411000180001F063FAFB680133FB60FB68032BB6
:10412000E1DD044A7B68D31800221A70C046BD4600
:1041300004B080BDB0010020AD01002080B582B088
:1041400000AF7860184A7B68D3187E221A70164B2D
:104150008121180001F042FA134A7B68D318E72244
:104160001A70114B4221180001F038FA0E4A7B6890
:10417000D318C3221A700C4B2421180001F02EFA18
:10418000094A7B68D31806221A70074B18211800B9
:1041900001F024FA044A7B68D31800221A70C04642
:1041A000BD4602B080BDC046B001002080B582B0DF
:1041B00000AF7860274A7B68D3187E221A70254B9F
:1041C0008021180001F00AFA224A7B68D318C32222
:1041D0001A70204B4021180001F000FA1D4A7B683C
:1041E000D31883221A701B4B2021180001F0F6F916
:1041F000184A7B68D3180E221A70164B102118002B
:1042000001F0ECF9134A7B68D3181C221A70114B89
:104210000821180001F0E2F90E4A7B68D3187022D9
:104220001A700C4B0421180001F0D8F9094A7B6878
:10423000D318FF221A70074B0321180001F0CEF9A2
:10424000044A7B68D31800221A70C046BD4602B0EB
:1042500080BDC046B001002080B582B000AF78605C
:10426000224A7B68D318FF221A70204B01211800C4
:1042700001F0B4F91D4A7B68D31898221A701B4BC1
:104280000821180001F0AAF9184A7B68D318D8222F
:104290001A70164B1021180001F0A0F9134A7B6820
:1042A000D31878221A70114B2021180001F096F9CA
:1042B0000E4A7B68D31838221A700C4B4021180024
:1042C00001F08CF9094A7B68D31818221A70074B41
:1042D0008621180001F082F9044A7B68D318002275
:1042E0001A70C046BD4602B080BDC046B001002075
:1042F00080B582B000AF7860134A7B68D3183C2247
:104300001A70114B8121180001F068F90E4A7B6880
:10431000D31866221A700C4B4221180001F05EF986
:10432000094A7B68D318C3221A70074B3C21180036
:1043300001F054F9044A7B68D31800221A70C04671
:10434000BD4602B080BDC046B001002080B588B037
:1043500000AF804B1B78032B00D1B5E000DDEBE014
:10436000022B00D178E000DDE6E0002B02D0012B2B
:1043700039D0E1E0FCF74EFB0200774B1B68D31A03
:104380009622934200D2D9E0744B18221A7003236C
:10439000FB6107E0724AFB69D31818221A70FB69A7
:1043A0000133FB61FB69042BF4DD6C4B1A786C4B19
:1043B0001100180001F012F90023BB6107E0684A00
:1043C000BB69D31800221A70BB690133BB61BB699A
:1043D000072BF4DD5F4B01221A70FCF71BFB020078
:1043E0005D4B1A60AAE0FCF715FB02005A4B1B68F4
:1043F000D31A9622934200D2A2E0584B24221A707C
:1044000002237B6107E0564A7B69D3183C221A706D
:104410007B6901337B617B69052BF4DD4F4B1A7897
:104420004F4B1100180001F0D9F800233B6107E061
:104430004B4A3B69D31800221A703B6901333B6138
:104440003B69072BF4DD434B02221A70FCF7E2FABA
:104450000200414B1A6073E0FCF7DCFA02003E4BAD
:104460001B68D31A962293426CD33C4B42221A709B
:104470000123FB6007E03A4AFB68D3187E221A70DA
:10448000FB680133FB60FB68062BF4DD334B1A78C5
:10449000334B1100180001F0A1F80023BB6007E0C6
:1044A0002F4ABB68D31800221A70BB680133BB6067
:1044B000BB68072BF4DD274B03221A70FCF7AAFA1E
:1044C0000200254B1A603DE0FCF7A4FA0200224BE3
:1044D0001B68D31A9622934236D3204B81221A703E
:1044E00000237B6007E01E4A7B68D318FF221A7006
:1044F0007B6801337B607B68072BF4DD174B1A78F0
:10450000174B1100180001F069F800233B6007E029
:10451000134A3B68D31800221A703B6801333B6092
:104520003B68072BF4DD0B4B00221A70FCF772FA84
:104530000200094B1A6007E0C04606E0C04604E0EE
:10454000C04602E0C04600E0C046C046BD4608B0D6
:1045500080BDC046C0010020CC010020C101002068
:10456000C401002080B582B000AF0D4B04221A7048
:1045700000237B6007E00B4A7B68D31800221A7087
:104580007B6801337B607B68072BF4DD064B0022E0
:104590001A70064B03221A70C046BD4602B080BD99
:1045A00010000020C4010020C1010020C001002033
:1045B000B0B584B000AF05000C0010001900FB1D61
:1045C0002A1C1A70BB1D221C1A707B1D021C1A703B
:1045D0003B1D0A1C1A707B1D1B789A01BB1D1B78A2
:1045E000DB00D218FB1D1B78D318DB10DAB2404B6E
:1045F0001A707B1D1B789B01DAB2BB1D1B78DB0098
:10460000DBB2D318DAB2FB1D1B78D318DAB2384B01
:104610001B78DB00DBB2D31ADAB2364B1A70344B9C
:104620001A787B1D1B78DB00DBB2D31ADAB2324B6F
:104630001A707B1D1B78082B03D1304BFF221A7098
:1046400007E07B1D1B7801229A401300DAB22B4B46
:104650001A70284B1B781A00012393401900264B2F
:104660001B781A00C9B2264B9954244B1A78254B53
:104670001A700F23FB1801221A700EE00F203B184E
:104680001B785A1E3B181B781D49895C1D4AD15462
:104690003B181A783B1801321A700F23FB181B784D
:1046A000082BEBD99023DB05002240211800FCF7F2
:1046B0009CFC1449144864230922FDF759FB9023FC
:1046C000DB05012240211800FCF78FFC3B1D1B7805
:1046D000002B08D1094B00221A70074B1B781A00D7
:1046E000074B00219954C046BD4604B0B0BDC0463A
:1046F000D9010020DA010020DB010020D8010020D0
:10470000D0010020DC0100209400002080B586B09C
:1047100000AF934BFF22DA71914BDA79904B9A718B
:104720008F4B9A798E4B5A718D4B5A798C4B1A71EB
:104730008B4B1A798A4BDA70894BDA78884B9A70EE
:10474000874B9A78864B5A70854B5A78844B1A70EF
:10475000834B7E229A73824B9A7B814B5A73804B98
:104760005A7B7F4B1A737E4B1A7B7D4BDA727C4BE4
:10477000DA7A7B4B9A727A4B9A7A794B5A72784BE7
:104780003C225A75764B5A7D754B1A75744B1A7DBF
:10479000734BDA74724BDA7C714B9A74704B18223B
:1047A0001A776F4B1A7F6E4BDA766E4BFF221A70B8
:1047B0006C4B7E225A706B4B3C229A70694B1822CC
:1047C000DA70694B1B78032B00D190E000DDB9E073
:1047D000022B60D000DDB5E0002B02D0012B2DD0E4
:1047E000B0E0FCF717F90200604B1B68D31AC8222F
:1047F000934200D2A8E000237B6113E0584A7B6912
:10480000D318183319783A007B69D3180A1C1A7028
:10481000544BDA783B001100180000F0DFFE7B6992
:1048200001337B617B69072BE8DDFCF7F3F80200BD
:104830004E4B1A604C4B01221A7085E0FCF7EAF8E7
:1048400002004A4B1B68D31AC822934200D27DE073
:1048500000233B6113E0424A3B69D31810331978B7
:104860003A003B69D3180A1C1A703E4B9A783B00F9
:104870001100180000F0B2FE3B6901333B613B6957
:10488000072BE8DDFCF7C6F80200384B1A60364B00
:1048900002221A705AE0FCF7BDF80200334B1B6885
:1048A000D31AC822934253D30023FB6013E02C4A4F
:1048B000FB68D318083319783A00FB68D3180A1C30
:1048C0001A70284B5A783B001100180000F086FE41
:1048D000FB680133FB60FB68072BE8DDFCF79AF807
:1048E0000200224B1A60204B03221A7030E0FCF7C2
:1048F00091F802001D4B1B68D31AC822934229D39A
:104900000023BB6012E0164ABB68D31819783A003E
:10491000BB68D3180A1C1A70124B1A783B0011009E
:10492000180000F05BFEBB680133BB60BB68072B5F
:10493000E9DDFCF76FF802000C4B1A600A4B00220D
:104940001A7007E0C04606E0C04604E0C04602E038
:10495000C04600E0C046C046BD4606B080BDC04669
:10496000EC0100200C020020E5010020E8010020FD
:1049700080B582B000AF144B03221A7000237B6015
:1049800018E0124A7B68D31800221A7000233B609B
:104990000AE00F4A7B68DB00D2183B68D31800227C
:1049A0001A703B6801333B603B68072BF1DD7B6885
:1049B00001337B607B68032BE3DD064B03221A7017
:1049C000C046BD4602B080BD100000200C02002091
:1049D000EC010020E501002080B582B000AF7860D6
:1049E0000A00BB1C1A80154B1B78082B21D89A0093
:1049F000134BD3181B689F46104B01221A7019E005
:104A000000F004FA16E0FFF7B3FF13E0FFF7AAFD8A
:104A100010E0FEF755FE0DE0FFF7EEF90AE000F0BA
:104A200097FA07E000F0C6FD04E0044B00221A707C
:104A300000E0C046C046BD4602B080BD1000002068
:104A40009C68000880B582B000AF0200FB1D1A70A0
:104A5000FB1D1B78082B20D89A00124BD3181B681B
:104A60009F46FEF710FF19E000F01EF816E000F078
:104A700047F813E0FFF74AFE10E0FFF767FC0DE090
:104A8000FEF7B2FD0AE0FEF71FFF07E0042000F08A
:104A9000EDF903E000F06CFA00E0C046C046BD4608
:104AA00002B080BDC068000880B586B000AF0023AA
:104AB0007B611DE000233B6107E03A1D7B69D31851
:104AC000FF221A703B6901333B613B69072BF4DD20
:104AD00080227B691A410F217B181A707B181A7883
:104AE0003B1D1100180000F079FD7B6901337B61EB
:104AF0007B69072BDEDDC046C046BD4606B080BDE3
:104B000080B588B000AFBB4B1B78022B00D100E111
:104B100000DD64E1002B02D0012B6CD05FE1B64BCD
:104B2000FF221A70FBF776FF0200B44B1B68D31A02
:104B30006422934200D254E1B14B1B78002B27D062
:104B4000B04B1B68B04AFF21D154AB4B1A78AE4B27
:104B50001100180000F042FDAB4BDB79FF2B03D1B5
:104B6000A74B00221A7004E0A64B1B685A1CA54BE9
:104B70001A600023FB6107E0A34AFB69D3180022F7
:104B80001A70FB690133FB61FB69072BF4DD2CE034
:104B90009C4B1B689C4AFF21D154974B1A789A4B27
:104BA0001100180000F01AFD974B1B78FF2B09D15C
:104BB000934B01221A70934B00221A608D4B0122F5
:104BC0001A7004E08F4B1B685A1E8E4B1A6000232C
:104BD000BB6107E08C4ABB69D31800221A70BB691D
:104BE0000133BB61BB69072BF4DDFBF713FF020048
:104BF000824B1A60F5E0804BFF221A70824B1B78C3
:104C0000002B19D100237B6107E07F4A7B69D31811
:104C100001221A707B6901337B617B69072BF4DD0C
:104C2000754B1A78784B1100180000F0D7FCFBF791
:104C3000F1FE0200714B1A60FBF7ECFE02006F4BB5
:104C40001B68D31A6422934200D2CCE06C4B1B78D1
:104C5000002B22D000233B610DE06B4A3B69D31847
:104C60001B78DB18D9B2684A3B69D3180A1C1A7042
:104C70003B6901333B613B69072BEEDD5E4B1A78E4
:104C8000614B1100180000F0A9FC5F4B1B78802BD2
:104C900039D15B4B00221A7035E00023FB600DE038
:104CA000594AFB68D3181B785B08D9B2564AFB688F
:104CB000D3180A1C1A70FB680133FB60FB68072BD2
:104CC000EEDD4D4B1A78504B1100180000F086FCB9
:104CD0004D4B1B78002B16D10023BB6007E04A4ADE
:104CE000BB68D318FF221A70BB680133BB60BB6876
:104CF000072BF4DD404B00221A70414B01221A7041
:104D00003C4B02221A70FBF785FE02003B4B1A60F7
:104D100069E0394B1B78002B0ED1374B01221A70FA
:104D2000354B1A78384B1100180000F057FCFBF790
:104D300071FE0200314B1A60FBF76CFE02002F4B34
:104D40001B68D31A642293424FD32D4B1B78002B40
:104D500014D0294B1B78DB18DAB2274B1A70264B7C
:104D60001A78294B1100180000F038FC224B1B78F0
:104D7000802B2ED1224B00221A702AE01E4B1B786A
:104D80005B08DAB21C4B1A701B4B1A781E4B1100D1
:104D9000180000F023FC184B1B78012B19D10023BD
:104DA0007B6007E0184A7B68D31800221A707B6882
:104DB00001337B607B68072BF4DD124B00221A6005
:104DC0000F4B01221A700B4B00221A700A4B002263
:104DD0001A70FBF71FFE0200084B1A6005E0C04680
:104DE00004E0C04602E0C04600E0C046C046BD4602
:104DF00008B080BD1002002018020020140200201C
:104E000011020020240200201C02002080B582B084
:104E100000AF104B02221A7000237B6007E00E4A9D
:104E20007B68D31800221A707B6801337B607B6833
:104E3000072BF4DD094B00221A60094B01221A707E
:104E4000084B00221A70084B00221A70C046BD465B
:104E500002B080BD100000201C02002024020020AF
:104E600011020020180200201002002080B584B03A
:104E700000AF0200FB1D1A70FBF7CCFD0300180009
:104E800000F01AFCFBF7C6FD02002C4B1B68D31A7E
:104E9000312B12D92A4B1B78002B03D1284B072228
:104EA0001A7005E0264B1B78013BDAB2244B1A70CE
:104EB000FBF7B0FD0200214B1A600F23FB18002204
:104EC0001A702EE01E4B1B78072B1BD100F024FC20
:104ED00003001C4A134004D5013B082252421343ED
:104EE0000133DAB2184B1A7000F016FC0300154AB1
:104EF000134004D5013B0822524213430133DAB276
:104F0000124B1A70104B1878104B19780C4B1A78FA
:104F10000023FFF74DFB0F217B181A787B18013215
:104F20001A700F23FA18FB1D12781B789A42C9D306
:104F3000C046C046BD4604B080BDC0462C0200201D
:104F40002A020020070000802802002029020020F9
:104F500080B500AF044B07221A70044B07221A7069
:104F6000C046BD4680BDC0462A0200201000002079
:104F700080B500AF134B1B78002B1CD0012B1CD12C
:104F8000114B1B78032B11D013DC022B0BD010DC40
:104F9000002B02D0012B03D00BE000F017F809E042
:104FA00000F0DAF806E000F09DF903E000F060FAA6
:104FB00000E0C04602E0C04600E0C046C046BD4634
:104FC00080BDC0463202002030020020B0B500AFE4
:104FD0005C4B1B78032B00D181E000DDA6E0022BA7
:104FE00056D000DDA2E0002B02D0012B28D09DE09E
:104FF000554B1C68FBF70EFD0300E31A3C2293425D
:1050000000D295E0514B1978082201230020FFF7C8
:10501000CFFA4E4B1B78002B06D14D4B01221A7054
:105020004C4B01221A7005E0484B1B78013BDAB269
:10503000464B1A70FBF7EEFC0200434B1A6077E018
:10504000414B1C68FBF7E6FC0300E31A3C22934249
:1050500000D26FE03E4B1878082201230021FFF7B1
:10506000A7FA3B4B1B78072B06D1364B02221A704E
:10507000364B00221A7005E0354B1B780133DAB24B
:10508000334B1A70FBF7C6FC02002F4B1A6051E03D
:105090002D4B1C68FBF7BEFC0300E31A3C22934235
:1050A0004AD32A4B1978082201230720FFF780FAF8
:1050B000264B1B78072B06D1224B03221A70244B58
:1050C00007221A7005E0214B1B780133DAB21F4B1F
:1050D0001A70FBF79FFC02001B4B1A602CE01A4B66
:1050E0001C68FBF797FC0300E31A3C22934225D38C
:1050F000174B1878082201230721FFF759FA144BA0
:105100001B78012B06D1134B01221A700F4B07227B
:105110001A7005E00E4B1B78013BDAB20C4B1A708B
:10512000FBF778FC0200084B1A6007E0C04606E077
:10513000C04604E0C04602E0C04600E0C046C046AB
:10514000BD46B0BD310200203802002034020020EC
:105150003302002030020020B0B500AF5C4B1B785A
:10516000032B00D181E000DDA6E0022B56D000DD4C
:10517000A2E0002B02D0012B28D09DE0554B1C68EB
:10518000FBF748FC0300E31A3C22934200D295E06F
:10519000514B1978082201230120FFF709FA4E4BE1
:1051A0001B78012B06D14D4B01221A70484B01226E
:1051B0001A7005E0484B1B78013BDAB2464B1A7077
:1051C000FBF728FC0200434B1A6077E0414B1C6858
:1051D000FBF720FC0300E31A3C22934200D26FE06D
:1051E0003E4B1878082201230121FFF7E1F93B4BE0
:1051F0001B78012B06D1384B01221A70344B022246
:105200001A7005E0354B1B780133DAB2334B1A7054
:10521000FBF700FC02002F4B1A6051E02D4B1C687D
:10522000FBF7F8FB0300E31A3C2293424AD32A4BD4
:105230001978082201230620FFF7BAF9264B1B78BC
:10524000062B06D1254B06221A70214B03221A7019
:1052500005E0214B1B780133DAB21F4B1A70FBF7C4
:10526000D9FB02001B4B1A602CE01A4B1C68FBF7A1
:10527000D1FB0300E31A3C22934225D3174B187845
:10528000082201230621FFF793F9144B1B78022B08
:1052900006D1114B06221A70114B02221A7005E03A
:1052A0000E4B1B78013BDAB20C4B1A70FBF7B2FBCA
:1052B0000200084B1A6007E0C04606E0C04604E062
:1052C000C04602E0C04600E0C046C046BD46B0BD94
:1052D0003102002038020020340200203302002076
:1052E00030020020B0B500AF5C4B1B78032B00D11F
:1052F00081E000DDA6E0022B56D000DDA2E0002B0D
:1053000002D0012B28D09DE0554B1C68FBF782FB97
:105310000300E31A3C22934200D295E0514B1978E6
:10532000082201230220FFF743F94E4B1B78022B82
:1053300006D14D4B02221A70484B01221A7005E02B
:10534000484B1B78013BDAB2464B1A70FBF762FB05
:105350000200434B1A6077E0414B1C68FBF75AFB95
:105360000300E31A3C22934200D26FE03E4B1878D0
:10537000082201230221FFF71BF93B4B1B78052B69
:1053800006D1384B02221A70344B02221A7005E003
:10539000354B1B780133DAB2334B1A70FBF73AFB0B
:1053A00002002F4B1A6051E02D4B1C68FBF732FBBB
:1053B0000300E31A3C2293424AD32A4B197808226D
:1053C00001230520FFF7F4F8264B1B78052B06D1A7
:1053D000254B05221A70214B03221A7005E0214B40
:1053E0001B780133DAB21F4B1A70FBF713FB020074
:1053F0001B4B1A602CE01A4B1C68FBF70BFB0300DD
:10540000E31A3C22934225D3174B18780822012334
:105410000521FFF7CDF8144B1B78032B06D1114B58
:1054200005221A70114B03221A7005E00E4B1B78EF
:10543000013BDAB20C4B1A70FBF7ECFA0200084B96
:105440001A6007E0C04606E0C04604E0C04602E03D
:10545000C04600E0C046C046BD46B0BD3102002097
:1054600038020020340200203302002030020020E5
:10547000B0B500AF494B1B78022B55D000DD83E05F
:10548000002B02D0012B28D07EE0454B1C68FBF797
:10549000C1FA0300E31A3C22934200D276E0414B6A
:1054A0001978082201230320FFF782F83D4B1B786F
:1054B000032B06D13C4B03221A70384B01221A7081
:1054C00005E0384B1B78013BDAB2364B1A70FBF71C
:1054D000A1FA0200324B1A6058E0314B1C68FBF70E
:1054E00099FA0300E31A3C22934251D32E4B1878C9
:1054F000082201230321FFF75BF82B4B1B78042BB9
:1055000006D1284B03221A70244B02221A7005E0A0
:10551000254B1B780133DAB2234B1A70FBF77AFA6A
:1055200002001F4B1A6033E01D4B1C68FBF772FA38
:105530000300E31A3C2293422CD31A4B1978082219
:1055400001230420FFF734F8164B1B78042B0FD1EE
:10555000154B07221A70134B00221A70134B0022AE
:105560001A70134B00221A700C4B00221A7005E0BF
:105570000C4B1B780133DAB20A4B1A70FBF74AFA6C
:105580000200074B1A6005E0C04604E0C04602E096
:10559000C04600E0C046C046BD46B0BD3102002056
:1055A00038020020340200203302002032020020A2
:1055B0003002002080B500AF054B07221A70054B62
:1055C00001221A70044B00221A70C046BD4680BDED
:1055D00034020020320200203102002080B586B063
:1055E00000AF78600A00FB1C1A700823FB18FA1C35
:1055F00012781A7001237B610DE07B69013B7A68A8
:10560000D31819780823FA187B69D3180A1C1A7062
:105610007B6901337B617B69082BEEDD9023DB0521
:10562000002240211800FBF7E0FC0823F918084885
:1056300064230922FCF79CFB9023DB050122402117
:105640001800FBF7D2FCC046BD4606B080BDC04680
:1056500094000020014B18687047C04614000020D9
:1056600070B500260C4D0D4C641BA410A64209D148
:10567000002601F0D7F80A4D0A4C641BA410A6427C
:1056800005D170BDB300EB5898470136EEE7B30083
:10569000EB5898470136F2E72C6A00082C6A00089C
:1056A0002C6A0008306A000803008218934200D177
:1056B000704719700133F9E7114B70B51D6804008C
:1056C000AB6B002B16D1182000F092F8021EA863D5
:1056D00004D142210B4B0C4800F05CF80B4B00212D
:1056E00003600B4B43600B4B83600B2383810120D2
:1056F000106151610022AB6B1C615A6170BDC046E4
:1057000014000020E8680008FF6800080E33CDABE5
:1057100034126DE6ECDE0500164B10B51C68A36B69
:10572000002B16D1182000F063F8021EA06304D1EC
:105730004E21114B114800F02DF8114B0021036050
:10574000104B4360104B83600B2383810120106159
:105750005161A46B0D4A206961690D4BFAF76AFD2E
:1057600001220023801859412061616148004008EE
:1057700010BDC04614000020E8680008FF6800085B
:105780000E33CDAB34126DE6ECDE05002D7F954C6B
:105790002DF4515830B514001A00094B05001B6850
:1057A00085B0D868074B002C01D1074B1C00019332
:1057B00000912B000549029400F00AF800F0C8FCA3
:1057C000140000205A6900089569000867690008FC
:1057D0000EB403B5010003AB044804CB0068019389
:1057E00000F01AF902B008BC03B0184714000020FA
:1057F00010B5034B0100186800F070F810BDC046EA
:105800001400002070B50500002910D00C1F23687B
:10581000002B00DAE418280000F0ECFE1D4A1368A3
:10582000002B05D163601460280000F0EBFE70BD12
:10583000A34208D9216860188342F3D118685B68D5
:1058400041182160EEE71A005B68002B01D0A342EB
:10585000F9D911685018A0420BD1206809185018C6
:1058600011608342E0D118685B6841181160536091
:10587000DAE7A04202D90C232B60D5E72168601833
:10588000834203D118685B684118216063605460EB
:10589000CAE7C0463C02002070B50F4E0D003168CB
:1058A0000400002902D100F073FB306029002000C1
:1058B00000F06EFB431C0AD00323C51C9D43A84285
:1058C00007D0291A200000F063FB431C01D10125F9
:1058D0006D42280070BDC04640020020F7B503228B
:1058E000CB1C9343083306001F000C2B32D20C272D
:1058F000B94231D8300000F07DFE324D2B681C00DB
:10590000002C2ED139003000FFF7C6FF0400431CE5
:105910001ED12C682500002D4AD123682900E318E8
:105920003000019300F034FB019B834243D1236894
:105930000337FF1A03239F4308370C2F00D20C278D
:1059400039003000FFF7A8FF431C34D02368DF196B
:10595000276013E0002BCBDA0C23002533602800EE
:10596000FEBD2268D11B20D40B2917D9E21927606C
:10597000A34211D12A606368116053603000250092
:1059800000F040FE07220B35231D9543EA1A9D4285
:10599000E5D05B1BA350E2E75A60ECE76268A342E4
:1059A00001D12A60EAE75A60E8E723006468A7E7C4
:1059B0002C006D68AFE70C233000336000F022FE4E
:1059C000CDE7C0463C020020936810B5013B9360D0
:1059D000002B04DA9469A34207DB0A2905D0136877
:1059E000581C10601970080010BD00F0E3FA0100A7
:1059F000F9E7F8B506000F001400D518AC4201D144
:105A0000002007E021783A003000FFF7DDFF013485
:105A1000431CF3D1F8BD0000F0B5A1B006000C00A6
:105A20001F000392002804D08369002B01D100F0ED
:105A3000C5FC8E4B9C421CD17468636EDB0705D499
:105A4000A3899B0502D4A06D00F059FDA3891B0713
:105A500002D52369002B1DD12100300000F000FB8E
:105A6000002817D0636EDB070DD50120404221B01E
:105A7000F0BD7F4B9C4201D1B468DEE77D4B9C4278
:105A8000DBD1F468D9E7A3899B05EED4A06D00F0C3
:105A900037FDEAE7002308AD6B6120336B761033E6
:105AA000AB760797039F3B78002B01D0252B4ED177
:105AB000039BFB1A0593039B9F420DD0059B21007E
:105AC0003000039AFFF795FF431C00D1B5E06A69E7
:105AD000059B944663446B613B78002B00D1ACE09E
