:020000040800F2
:1000000000180020B9060008650600086B06000805
:1000100000000000000000000000000000000000E0
:100020000000000000000000000000007106000851
:1000300000000000000000007B06000885060008A4
:100040003907000839070008390700083907000890
:100050003907000839070008390700083907000880
:100060003907000839070008390700083907000870
:100070003907000839070008390700083907000860
:1000800039070008000000000000000039070008E0
:100090000000000039070008390700083907000888
:1000A000000000003907000839070008950600081D
:1000B0003907000800000000390700083907000868
:1000C00010B5064C2378002B07D1054B002B02D02E
:1000D000044800E000BF0123237010BD0C00002085
:1000E000000000009C3A0008044B10B5002B03D020
:1000F0000349044800E000BF10BDC04600000000F6
:10010000100000209C3A0008002243088B4274D360
:1001100003098B425FD3030A8B4244D3030B8B4208
:1001200028D3030C8B420DD3FF22090212BA030C11
:100130008B4202D31212090265D0030B8B4219D3F2
:1001400000E0090AC30B8B4201D3CB03C01A524112
:10015000830B8B4201D38B03C01A5241430B8B425A
:1001600001D34B03C01A5241030B8B4201D30B0343
:10017000C01A5241C30A8B4201D3CB02C01A52416A
:10018000830A8B4201D38B02C01A5241430A8B422D
:1001900001D34B02C01A5241030A8B4201D30B0216
:1001A000C01A5241CDD2C3098B4201D3CB01C01A30
:1001B000524183098B4201D38B01C01A524143093A
:1001C0008B4201D34B01C01A524103098B4201D328
:1001D0000B01C01A5241C3088B4201D3CB00C01A95
:1001E000524183088B4201D38B00C01A524143080D
:1001F0008B4201D34B00C01A5241411A00D2014632
:10020000524110467047FFE701B5002000F006F8A4
:1002100002BDC0460029F7D076E770477047C04658
:10022000B0B596B016AF00F089FA9023D905114BFE
:100230000222180002F0FBFE00F022F800F0EEF8B7
:1002400000F07EF800F0BAF80A4B180002F061FEE8
:10025000094B1D78094C6B46180023000C335822BB
:10026000190003F009FC21686268A368280003F004
:10027000F1F8E9E7100100205801002028000020D3
:1002800090B599B000AF2C243B19180034231A0004
:10029000002103F0FAFB1C23FB18180010231A009E
:1002A000002103F0F2FB3B1D180018231A00002167
:1002B00003F0EBFB21007B1801221A607B1801225E
:1002C0005A607B1802225A627B18802252029A627C
:1002D0007B1880225203DA627B1800221A637B1893
:1002E000180000F08DFD031E01D000F0EFF81C2176
:1002F0007B1807221A607B1802225A607B180022A2
:100300009A607B180022DA607B180121180001F046
:10031000FDF8031E01D000F0D9F83B1D01221A6040
:100320003B1D00229A603B1D180001F069FA031E74
:1003300001D000F0CBF8C046BD4619B090BD00001A
:1003400080B500AF1B4B1C4A1A601A4B8222520028
:100350005A60184B00229A60164BE022D200DA60F5
:10036000144B00221A61134B00225A61114B802258
:1003700092009A610F4B2022DA610E4B00221A6222
:100380000C4B00225A620B4B00229A62094B072247
:10039000DA62084B00221A63064B00225A63054BAF
:1003A000180001F01BFB031E01D000F08FF8C046BF
:1003B000BD4680BD280000200030014080B500AF60
:1003C000144B154A1A60134BE12252025A60114B2A
:1003D00000229A600F4B0022DA600E4B00221A6155
:1003E0000C4B04225A610B4B00229A61094B0022EC
:1003F000DA61084B00221A62064B00225A62054B52
:10040000180001F071FE031E01D000F05FF8C04635
:10041000BD4680BD8C0000200038014090B589B0F9
:1004200000AF0C243B19180014231A00002103F01C
:100430002CFB254B5A69244B8021C9030A435A617E
:10044000214B5A698023DB031340BB60BB681E4B02
:100450005A691D4B802189020A435A611A4B5A6915
:1004600080239B0213407B607B689023DB05002286
:100470004021180000F0A7FC3B1902221A603B192A
:1004800000225A603B1901229A603A199023DB0539
:100490001100180000F012FB21007B1840221A60A6
:1004A0007B1801225A607B1800229A607B18032275
:1004B000DA607A189023DB051100180000F0FEFACC
:1004C000C046BD4609B090BD0010024080B500AFE7
:1004D00072B6C046FEE7000080B582B000AF0F4B99
:1004E0009A690E4B01210A439A610C4B9B690122C8
:1004F00013407B607B68094BDA69084B8021490512
:100500000A43DA61054BDA6980235B0513403B60DF
:100510003B68C046BD4602B080BDC04600100240E8
:1005200090B58BB000AF786014243B1918001423E9
:100530001A00002103F0A9FA7B681B681C4A934249
:1005400032D11C4B9A691B4B802149010A439A61A5
:10055000184B9A6980235B0113403B613B69154B43
:100560005A69144B802189020A435A61114B5A6916
:1005700080239B021340FB60FB6821007B18A022B4
:100580001A607B1802225A607B1800229A607B183E
:100590000322DA607B1800221A617A189023DB05A7
:1005A0001100180000F08AFAC046BD460BB090BD9D
:1005B000003001400010024090B58BB000AF786071
:1005C00014243B19180014231A00002103F05DFACB
:1005D0007B681B68214A93423BD1214B9A69204B8F
:1005E0008021C9010A439A611D4B9A698023DB016E
:1005F00013403B613B691A4B5A69194B80218902B0
:100600000A435A61164B5A6980239B021340FB60D0
:10061000FB683B19C022D2001A6021007B1802221D
:100620005A607B1800229A607B180322DA607B18DC
:1006300001221A617A189023DB051100180000F0DE
:100640003DFA002200211B2000F088F91B2000F059
:100650009AF9C046BD460BB090BDC0460038014077
:100660000010024080B500AFFEE780B500AFFEE7A6
:1006700080B500AFC046BD4680BD80B500AFC04666
:10068000BD4680BD80B500AF00F0A0F8C046BD46B5
:1006900080BD000080B500AF034B180001F078FD6D
:1006A000C046BD4680BDC0468C00002080B500AF6E
:1006B000C046BD4680BD000013488546134801680A
:1006C000090E134A914205D112481349016013489B
:1006D0001349016013481449144A002302E0D45816
:1006E000C4500433C4188C42F9D3114A114C00236E
:1006F00001E013600432A242FBD3FFF7D7FF03F0FF
:1007000097F9FFF78DFDFEE70018002004000000B8
:100710001F0000001810024001000000000001400E
:1007200000000000000000200C000020FC3A00083F
:100730000C00002070010020FEE7000080B500AF33
:10074000074B1A68064B10210A431A60012000F07B
:1007500009F8FFF7C1FE00231800BD4680BDC04662
:100760000020024090B583B000AF7860144B1C6845
:10077000144B1B781900FA239800FFF7C5FC0300FF
:1007800019002000FFF7C0FC0300180000F00BF96F
:10079000031E01D001230FE07B68032B0BD879687F
:1007A00001235B420022180000F0D8F8064B7A685B
:1007B0001A60002300E001231800BD4603B090BD7D
:1007C00000000020080000200400002080B500AFD9
:1007D000054B1B781A00054B1B68D218034B1A6097
:1007E000C046BD4680BDC04608000020280100204C
:1007F00080B500AF024B1B681800BD4680BDC046E7
:100800002801002080B582B000AF0200FB1D1A70E5
:10081000FB1D1B787F2B09D8FB1D1B781A001F239B
:100820001A40044B012191400A001A60C046BD469F
:1008300002B080BD00E100E090B583B000AF0200DF
:100840003960FB1D1A70FB1D1B787F2B28D82F4A9F
:10085000FB1D1B785BB29B08C0339B009B58FA1DA5
:100860001278110003220A40D200FF2191400A00B1
:10087000D2431A4011003B689B01FF221A40FB1D26
:100880001B78180003230340DB009A401F48FB1D20
:100890001B785BB29B080A43C0339B001A5031E0BF
:1008A0001B4AFB1D1B7819000F230B40083B9B08BC
:1008B00006339B00D31804331B68FA1D127811000D
:1008C00003220A40D200FF2191400A00D2431A407D
:1008D00011003B689B01FF221A40FB1D1B7818008A
:1008E00003230340DB009A400948FB1D1B781C00D2
:1008F0000F232340083B9B080A4306339B00C31881
:1009000004331A60C046BD4603B090BD00E100E06C
:1009100000ED00E080B582B000AF78607B685A1EC1
:1009200080235B049A4201D3012310E00A4B7A68CA
:10093000013A5A6001235B4203211800FFF77CFF54
:10094000054B00229A60044B07221A60002318000E
:10095000BD4602B080BDC04610E000E080B584B066
:1009600000AFB9607A600F217B18021C1A70BA6858
:100970007B181B785BB211001800FFF75DFFC046C3
:10098000BD4604B080BD80B582B000AF0200FB1D43
:100990001A70FB1D1B785BB21800FFF733FFC046CF
:1009A000BD4602B080BD80B582B000AF78607B6884
:1009B0001800FFF7AFFF03001800BD4602B080BD6E
:1009C00080B582B000AF78607B6821229B5CDBB28F
:1009D000022B08D07B6804229A637B6820220021C6
:1009E0009954012320E07B681B681A687B681B68A8
:1009F0000E218A431A607B681B681A687B681B6833
:100A000001218A431A607B681A6C7B68DB6B0121C9
:100A100091400A005A607B682122012199547B6829
:100A200020220021995400231800BD4602B080BD49
:100A300080B584B000AF78600F217B1800221A7057
:100A40007B6821229B5CDBB2022B06D07B680422F0
:100A50009A637B1801221A7028E07B681B681A6869
:100A60007B681B680E218A431A607B681B681A68C2
:100A70007B681B6801218A431A607B681A6C7B685B
:100A8000DB6B012191400A005A607B682122012121
:100A900099547B682022002199547B685B6B002B62
:100AA00004D07B685B6B7A68100098470F23FB18B3
:100AB0001B781800BD4604B080BD000080B586B02C
:100AC00000AF7860396000237B6149E13B681B68B7
:100AD00001217A6991400A001340FB60FB68002BFA
:100AE00000D13AE13B685B6803221340012B05D03B
:100AF0003B685B6803221340022B30D17B689B6804
:100B00003B617B695B0003229A401300DA433B6937
:100B100013403B613B68DA687B695B009A401300D5
:100B20003A6913433B617B683A699A607B685B680A
:100B30003B6101227B699A401300DA433B69134011
:100B40003B613B685B681B0901221A407B699A4044
:100B500013003A6913433B617B683A695A603B680A
:100B60005B6803221340032B17D07B68DB683B6173
:100B70007B695B0003229A401300DA433B69134010
:100B80003B613B689A687B695B009A4013003A6955
:100B900013433B617B683A69DA603B685B68032218
:100BA0001340022B23D17B69DA087B68083292005C
:100BB000D3583B617B69072213409B000F229A4068
:100BC0001300DA433B6913403B613B681A697B6958
:100BD00007210B409B009A4013003A6913433B6185
:100BE0007B69DA087B68083292003969D1507B68EA
:100BF0001B683B617B695B0003229A401300DA4368
:100C00003B6913403B613B685B6803221A407B6988
:100C10005B009A4013003A6913433B617B683A6971
:100C20001A603B685A68C0239B02134000D194E0CD
:100C3000514B9A69504B01210A439A614E4B9B6973
:100C400001221340BB60BB684C4A7B699B0802339E
:100C50009B009B583B617B69032213409B000F2242
:100C60009A401300DA433B6913403B617A68902352
:100C7000DB059A420DD07B68414A934207D07B68DE
:100C8000404A934201D1022304E0052302E00123FC
:100C900000E000237A6903210A40920093403A69F8
:100CA00013433B6135497B699B0802339B003A69DA
:100CB0005A50354B1B683B61FB68DA433B69134074
:100CC0003B613B685A6880235B02134003D03A695A
:100CD000FB6813433B612C4B3A691A602A4B5B68F3
:100CE0003B61FB68DA433B6913403B613B685A68F0
:100CF00080239B02134003D03A69FB6813433B6196
:100D0000214B3A695A60204B9B683B61FB68DA4390
:100D10003B6913403B613B685A6880235B03134087
:100D200003D03A69FB6813433B61174B3A699A60F9
:100D3000154BDB683B61FB68DA433B6913403B6161
:100D40003B685A6880239B03134003D03A69FB68D1
:100D500013433B610C4B3A69DA607B6901337B6179
:100D60003B681A687B69DA40131E00D0AEE6C046C5
:100D7000C046BD4606B080BD0010024000000140E4
:100D800000040048000800480004014080B584B019
:100D900000AF78600A00BB1C1A807B681B69BA1C14
:100DA0001288134004D00F23FB1801221A7003E0AD
:100DB0000F23FB1800221A700F23FB181B78180052
:100DC000BD4604B080BD80B582B000AF7860080039
:100DD0001100BB1C021C1A807B1C0A1C1A707B1C95
:100DE0001B78002B04D0BB1C1A887B689A6103E037
:100DF000BB1C1A887B689A62C046BD4602B080BDA3
:100E000080B588B000AF78607B68002B02D10123E9
:100E100000F076FB7B681B680122134000D18EE056
:100E2000C54B5B680C221340042B0ED0C24B5B6891
:100E30000C221340082B17D1BF4B5A68C0235B020A
:100E40001A4080235B029A420ED1BB4B1A68802362
:100E50009B02134000D171E07B685B68002B00D0DF
:100E60006CE0012300F04CFB7B685B68012B07D131
:100E7000B14B1A68B04B802149020A431A602FE037
:100E80007B685B68002B0CD1AB4B1A68AA4BAB4953
:100E90000A401A60A84B1A68A74BA9490A401A6071
:100EA0001EE07B685B68052B0ED1A34B1A68A24B32
:100EB0008021C9020A431A609F4B1A689E4B802109
:100EC00049020A431A600BE09B4B1A689A4B9B49F4
:100ED0000A401A60984B1A68974B99490A401A6061
:100EE0007B685B68002B14D0FFF782FC0300BB61BA
:100EF00008E0FFF77DFC0200BB69D31A642B01D91F
:100F00000323FDE28C4B1A6880239B021340F0D030
:100F100015E0FFF76DFC0300BB6108E0FFF768FC1C
:100F20000200BB69D31A642B01D90323E8E2824B88
:100F30001A6880239B021340F0D100E0C0467B6812
:100F40001B680222134000D16CE07B4B5B680C22D3
:100F500013400ED0784B5B680C221340082B1FD136
:100F6000754B5A68C0235B021A4080231B029A42C9
:100F700016D1714B1B680222134005D07B68DB68D9
:100F8000012B01D00123BBE26B4B1B68F82293437A
:100F900019007B681B69DA00674B0A431A6041E05D
:100FA0007B68DB68002B24D0634B1A68624B0121FD
:100FB0000A431A60FFF71CFC0300BB6108E0FFF75F
:100FC00017FC0200BB69D31A022B01D9032397E255
:100FD000594B1B6802221340F1D0574B1B68F82273
:100FE000934319007B681B69DA00534B0A431A606C
:100FF00018E0514B1A68504B01218A431A60FFF7E1
:10100000F7FB0300BB6108E0FFF7F2FB0200BB69DE
:10101000D31A022B01D9032372E2474B1B68022229
:101020001340F1D17B681B680822134036D07B68DF
:10103000DB69002B19D0404B5A6A3F4B01210A4310
:101040005A62FFF7D5FB0300BB6108E0FFF7D0FB56
:101050000200BB69D31A022B01D9032350E2364B9D
:101060005B6A02221340F1D018E0334B5A6A324BCC
:1010700001218A435A62FFF7BBFB0300BB6108E012
:10108000FFF7B6FB0200BB69D31A022B01D9032379
:1010900036E2294B5B6A02221340F1D17B681B6860
:1010A0000422134000D1B5E01F203B1800221A7023
:1010B000214BDA6980235B05134010D11E4BDA699E
:1010C0001D4B802149050A43DA611B4BDA698023F5
:1010D0005B051340FB60FB683B1801221A70194B3B
:1010E0001A6880235B0013401AD1164B1A68154BFF
:1010F000802149000A431A60FFF77AFB0300BB61B5
:1011000008E0FFF775FB0200BB69D31A642B01D915
:101110000323F5E10B4B1A6880235B001340F0D0EA
:101120007B689B68012B0FD1034B1A6A024B01218C
:101130000A431A6236E0C04600100240FFFFFEFF7D
:10114000FFFFFBFF007000407B689B68002B0CD109
:10115000CA4B1A6AC94B01218A431A62C74B1A6AE1
:10116000C64B04218A431A621CE07B689B68052BEE
:101170000CD1C24B1A6AC14B04210A431A62BF4BFD
:101180001A6ABE4B01210A431A620BE0BB4B1A6A72
:10119000BA4B01218A431A62B84B1A6AB74B042131
:1011A0008A431A627B689B68002B14D0FFF720FBF0
:1011B0000300BB6109E0FFF71BFB0200BB69D31A08
:1011C000AF4A934201D903239AE1AC4B1B6A022236
:1011D0001340F0D013E0FFF70BFB0300BB6109E005
:1011E000FFF706FB0200BB69D31AA54A934201D957
:1011F000032385E1A14B1B6A02221340F0D11F2378
:10120000FB181B78012B05D19C4BDA699B4B9D4940
:101210000A40DA617B681B681022134063D07B6848
:101220005B69012B2AD1954B5A6B944B04210A43DD
:101230005A63924B5A6B914B01210A435A63FFF751
:10124000D7FA0300BB6108E0FFF7D2FA0200BB69DE
:10125000D31A022B01D9032352E1884B5B6B022284
:101260001340F1D0854B5B6BF822934319007B68E8
:101270009B69DA00814B0A435A6334E07B685B69FF
:10128000053311D17D4B5A6B7C4B04218A435A6341
:101290007A4B5B6BF822934319007B689B69DA00F9
:1012A000764B0A435A631EE0744B5A6B734B04210E
:1012B0000A435A63714B5A6B704B01218A435A633C
:1012C000FFF796FA0300BB6108E0FFF791FA02000E
:1012D000BB69D31A022B01D9032311E1674B5B6B66
:1012E00002221340F1D17B681B68202213405CD09E
:1012F000624B5B680C2213400C2B0ED05F4B5B687B
:101300000C221340082B14D15C4B5A68C0235B029B
:101310001A40C0235B029A420BD1584B5A6B802370
:101320005B02134040D07B681B6A012B3CD0012339
:10133000E6E07B681B6A002B1BD0504B5A6B4F4B6F
:10134000802149020A435A63FFF752FA0300BB6146
:1013500008E0FFF74DFA0200BB69D31A022B01D94E
:101360000323CDE0454B5A6B80235B021340F0D042
:101370001BE0424B5A6B414B43490A405A63FFF70B
:1013800037FA0300BB6108E0FFF732FA0200BB69DD
:10139000D31A022B01D90323B2E0384B5A6B8023B6
:1013A0005B021340F0D100E0C0467B685B6A002B13
:1013B00000D1A4E0314B5B680C221340082B00D114
:1013C00078E07B685B6A022B4CD12C4B1A682B4B64
:1013D0002E490A401A60FFF70BFA0300BB6108E0D0
:1013E000FFF706FA0200BB69D31A022B01D90323C7
:1013F00086E0224B1A6880239B041340F0D11F4BD8
:10140000DB6A0F22934319007B681A6B1B4B0A435C
:10141000DA621A4B5B681E4A134019007B68DA6A6D
:101420007B689B6A1A43154B0A435A60134B1A6830
:10143000124B802149040A431A60FFF7D9F90300CF
:10144000BB6108E0FFF7D4F90200BB69D31A022B95
:1014500001D9032354E0094B1A6880239B041340ED
:10146000F0D04CE0054B1A68044B08490A401A605A
:10147000FFF7BEF90300BB6115E0C0460010024053
:1014800088130000FFFFFFEFFFFFFEFFFFFFFFFEDF
:10149000FF7FC2FFFFF7ACF90200BB69D31A022B32
:1014A00001D903232CE0184B1A6880239B041340B6
:1014B000F0D124E07B685B6A012B01D101231FE09E
:1014C000114B5B687B61104BDB6A3B617A69C0231F
:1014D0005B021A407B689B6A9A420ED13B690F22DD
:1014E0001A407B681B6B9A4207D17A69F0239B03F1
:1014F0001A407B68DB6A9A4201D0012300E0002396
:101500001800BD4608B080BD0010024080B584B010
:1015100000AF786039607B68002B01D10123BFE008
:10152000614B1B68012213403A689A4211D95E4B05
:101530001B680122934319005B4B3A680A431A6007
:10154000594B1B68012213403A689A4201D001238B
:10155000A6E07B681B680222134015D07B681B68DD
:101560000422134006D0514B5A68504BE021C90069
:101570000A435A604D4B5B68F022934319007B6825
:101580009A684A4B0A435A607B681B6801221340E1
:101590004CD07B685B68012B07D1444B1A688023D1
:1015A0009B02134020D101237AE07B685B68022B09
:1015B00007D13E4B1A6880239B04134014D10123AA
:1015C0006EE07B685B68032B07D1384B5A6B802336
:1015D0005B02134008D1012362E0344B1B680222F6
:1015E000134001D101235BE0304B5B68032293433E
:1015F00019007B685A682D4B0A435A60FFF7F8F8C8
:101600000300FB6009E0FFF7F3F80200FB68D31A60
:10161000274A934201D9032342E0244B5B680C2202
:101620001A407B685B689B009A42ECD11E4B1B689A
:10163000012213403A689A4211D21B4B1B680122C7
:1016400093431900184B3A680A431A60164B1B68FB
:10165000012213403A689A4201D0012320E07B68BE
:101660001B680422134009D0104B5B68114A1340D9
:1016700019007B68DA680D4B0A435A6000F020F8C5
:1016800001000A4B5B681B090F2213400A4AD35C16
:101690000A00DA40094B1A600120FFF763F80023C3
:1016A0001800BD4604B080BD00200240001002407A
:1016B00088130000FFF8FFFFDC3A0008000000205C
:1016C00090B58FB000AF1423FB18384A13CA13C368
:1016D00012681A603B1D364A13CA13C312681A6097
:1016E0000023FB620023BB6200237B6300237B6239
:1016F00000233B632F4B5B68FB62FB6A0C221340A9
:101700000C2B47D049D8042B02D0082B03D044E03F
:10171000294B3B6344E0FB6A9B0C0F2213401422CD
:10172000BA18D35C7B62234BDB6A0F2213403A1D4D
:10173000D35CBB62FA6AC0235B021A4080235B025F
:101740009A4209D1B96A1C48FEF7DEFC03001A0070
:101750007B6A53437B631AE0FA6AC0235B021A4038
:10176000C0235B029A4209D1B96A1448FEF7CCFC47
:1017700003001A007B6A53437B6308E0B96A0E4892
:10178000FEF7C2FC03001A007B6A53437B637B6B4A
:101790003B6305E0094B3B6302E0074B3B63C046FC
:1017A0003B6B1800BD460FB090BDC046B43A000870
:1017B000C43A00080010024000127A00006CDC02FB
:1017C00080B500AF024B1B681800BD4680BDC04607
:1017D0000000002080B500AFFFF7F2FF0100064BCC
:1017E0005B681B0A07221340044AD35CD9400B00F4
:1017F0001800BD4680BDC04600100240EC3A00080B
:1018000080B586B000AF786000233B610023FB60A9
:101810007B681A6880235B02134000D18EE017209A
:101820003B1800221A70674BDA6980235B0513406E
:1018300010D1644BDA69634B802149050A43DA61B0
:10184000604BDA6980235B051340BB60BB683B18C3
:1018500001221A705C4B1A6880235B0013401AD176
:10186000594B1A68584B802149000A431A60FEF709
:10187000BFFF03003B6108E0FEF7BAFF02003B69CF
:10188000D31A642B01D9032397E04F4B1A688023A6
:101890005B001340F0D04B4B1A6AC0239B001340EF
:1018A000FB60FB68002B34D07B685A68C0239B0028
:1018B0001340FA689A422CD0424B1B6A434A1340A9
:1018C000FB60404B1A6A3F4B802149020A431A626F
:1018D0003C4B1A6A3B4B3E490A401A62394BFA6844
:1018E0001A62FB680122134013D0FEF781FF030048
:1018F0003B6109E0FEF77CFF02003B69D31A354AE1
:10190000934201D9032358E02E4B1B6A0222134055
:10191000F0D02C4B1B6A2D4A134019007B685A6883
:10192000284B0A431A621723FB181B78012B05D199
:10193000244BDA69234B28490A40DA617B681B682B
:101940000122134009D01F4B1B6B03229343190044
:101950007B689A681B4B0A431A637B681B682022CA
:10196000134009D0174B1B6B1022934319007B685F
:10197000DA68144B0A431A637B681A6880239B0257
:10198000134009D00F4B1B6B8022934319007B68D7
:101990005A690C4B0A431A637B681A688023DB0080
:1019A000134009D0074B1B6B4022934319007B68FF
:1019B0001A69044B0A431A6300231800BD4606B097
:1019C00080BDC0460010024000700040FFFCFFFFD9
:1019D000FFFFFEFF88130000FFFFFFEF80B584B01C
:1019E00000AF78607B68002B01D10123A8E07B6801
:1019F0005B6A002B09D17B685A6882235B009A429C
:101A000009D07B680022DA6105E07B6800221A6158
:101A10007B6800225A617B6800229A627B685D22A3
:101A20009B5CDBB2002B07D17B685C2200219954C0
:101A30007B681800FEF774FD7B685D2202219954D3
:101A40007B681B681A687B681B6840218A431A60A0
:101A50007B68DA68E023DB009A4202D90023FB604E
:101A600002E080235B01FB607B68DA68F0231B01E6
:101A70009A4208D07B68DA68E023DB009A4202D001
:101A80007B6800229A627B685A6882235B001A4056
:101A90007B68996884231B020B401A437B681B698F
:101AA00002210B401A437B685B6901210B401A43FA
:101AB0007B68996980239B000B401A437B68DB6934
:101AC00038210B401A437B681B6A80210B401A4364
:101AD00011007B689A6A80239B011A407B681B680F
:101AE0000A431A607B689B691B0C04221A407B68BE
:101AF0005B6A10210B401A437B685B6B08210B402B
:101B00001A437B68D968F0231B010B401A4311006C
:101B1000FA6880235B011A407B681B680A435A609D
:101B20007B681B68DA697B681B6807490A40DA61D1
:101B30007B6800221A667B685D220121995400238C
:101B40001800BD4604B080BDFFF7FFFF80B588B028
:101B500000AFF860B9603B60BB1D1A801F23FB1803
:101B600000221A70FB685C229B5C012B01D10223CE
:101B700040E1FB685C2201219954FEF739FE030025
:101B8000BB611623FB18BA1D12881A80FB685D2200
:101B90009B5CDBB2012B04D01F23FB1802221A70BE
:101BA0001DE1BB68002B03D0BB1D1B88002B04D19B
:101BB0001F23FB1801221A7011E1FB685D2203212B
:101BC0009954FB6800221A66FB68BA689A63FB683E
:101BD000BA1D12889A87FB68BA1D1288DA87FB68DB
:101BE00000221A64FB68442200219952FB684622B5
:101BF00000219952FB6800221A65FB680022DA6412
:101C0000FB689A6880231B029A4210D1FB681B680C
:101C10001A68FB681B6840218A431A60FB681B68CE
:101C20001A68FB681B688021C9010A431A60FB68B7
:101C30001B681B6840221340402B07D0FB681B68C1
:101C40001A68FB681B6840210A431A60FB68DA685F
:101C5000E023DB009A424ED9FB685B68002B04D07E
:101C60001623FB181B88012B3FD1FB689B6B1A883E
:101C7000FB681B68DA60FB689B6B9A1CFB689A63C5
:101C8000FB68DB8F9BB2013B9AB2FB68DA872CE0E2
:101C9000FB681B689B6802221340022B12D1FB6871
:101CA0009B6B1A88FB681B68DA60FB689B6B9A1C4D
:101CB000FB689A63FB68DB8F9BB2013B9AB2FB68BF
:101CC000DA8712E0FEF794FD0200BB69D31A3A6886
:101CD0009A4202D83B68013302D13B68002B04D101
:101CE0001F23FB1803221A7079E0FB68DB8F9BB27D
:101CF000002BCDD14FE0FB685B68002B04D016238E
:101D0000FB181B88012B41D1FB689A6BFB681B6891
:101D10000C3312781A70FB689B6B5A1CFB689A6331
:101D2000FB68DB8F9BB2013B9AB2FB68DA872DE040
:101D3000FB681B689B6802221340022B13D1FB68CF
:101D40009A6BFB681B680C3312781A70FB689B6BEC
:101D50005A1CFB689A63FB68DB8F9BB2013B9AB20B
:101D6000FB68DA8712E0FEF743FD0200BB69D31A75
:101D70003A689A4202D83B68013302D13B68002B93
:101D800004D11F23FB1803221A7028E0FB68DB8FA5
:101D90009BB2002BCCD1BA693968FB68180000F0FF
:101DA0005DF9031E02D0FB6820221A66FB689B685F
:101DB000002B0AD100233B61FB681B68DB683B6199
:101DC000FB681B689B683B613B69FB681B6E002BD3
:101DD00004D01F23FB1801221A7000E0C046FB68E4
:101DE0005D2201219954FB685C22002199541F2334
:101DF000FB181B781800BD4608B080BD80B588B0C0
:101E000000AFF860B9603B60FB1D1A70FEF7F0FC94
:101E10000200BB6A9B1A3A68D318FB61FEF7E8FC24
:101E20000300BB613A4B1B685B011B0DFA6953430E
:101E30007B6158E03B68013355D0FEF7D9FC0200C6
:101E4000BB69D31AFA699A4202D9FB69002B42D1C5
:101E5000FB681B685A68FB681B68E0218A435A606C
:101E6000FB685A6882235B009A4213D1FB689A6828
:101E700080231B029A4205D0FB689A688023DB000E
:101E80009A4207D1FB681B681A68FB681B684021EF
:101E90008A431A60FB689A6A80239B019A4210D198
:101EA000FB681B681A68FB681B681A490A401A60BD
:101EB000FB681B681A68FB681B68802189010A435C
:101EC0001A60FB685D2201219954FB685C220021A5
:101ED0009954032317E07B69002B01D10023FB6198
:101EE0007B69013B7B61FB681B689B68BA68134098
:101EF000BA68D31A5A425341DBB21A00FB1D1B7851
:101F00009A4297D100231800BD4608B080BDC04654
:101F100000000020FFDFFFFF80B58AB000AFF8604F
:101F2000B9607A603B601723FB1800221A70FEF735
:101F30005FFC02003B6B9B1A3A68D3187B62FEF78A
:101F400057FC03003B62FB681B680C33FB61414B91
:101F50001A6813009B009B18DA00D31A1B0D7A6ACB
:101F60005343BB6168E0BA68C023DB009A420AD1E0
:101F70007B68002B07D1FB691B78DAB217217B182D
:101F80001A707B181B783B68013355D0FEF730FC84
:101F900002003B6AD31A7A6A9A4202D97B6A002B02
:101FA00042D1FB681B685A68FB681B68E0218A43C2
:101FB0005A60FB685A6882235B009A4213D1FB681F
:101FC0009A6880231B029A4205D0FB689A68802396
:101FD000DB009A4207D1FB681B681A68FB681B6824
:101FE00040218A431A60FB689A6A80239B019A42C7
:101FF00010D1FB681B681A68FB681B6816490A4009
:102000001A60FB681B681A68FB681B6880218901DD
:102010000A431A60FB685D2201219954FB685C2227
:1020200000219954032310E0BB69002B01D1002348
:102030007B62BB69013BBB61FB681B689B68BA683C
:1020400013407A689A428ED100231800BD460AB028
:1020500080BDC04600000020FFDFFFFF80B586B0D6
:1020600002AFF860B9607A60BA68C0235901F868B5
:102070007B68009313000022FFF74EFF031E07D07A
:10208000FB681B6E20221A43FB681A66032327E0B5
:10209000BA68F8687B680093130000228021FFF77C
:1020A000ADFE031E07D0FB681B6E20221A43FB689F
:1020B0001A66032314E0BA68C023D900F8687B6865
:1020C000009313000022FFF727FF031E07D0FB68D1
:1020D0001B6E20221A43FB681A66032300E00023CC
:1020E0001800BD4604B080BD80B582B000AF7860F6
:1020F0007B68002B01D1012344E07B689B6F002BA0
:1021000007D17B687422002199547B681800FEF780
:1021100053FA7B6824229A677B681B681A687B687D
:102120001B6801218A431A607B68180000F024FBB9
:102130000300012B01D1012324E07B685B6A002BA3
:1021400003D07B68180000F057FC7B681B685A6856
:102150007B681B680D490A405A607B681B689A6857
:102160007B681B682A218A439A607B681B681A680F
:102170007B681B6801210A431A607B68180000F025
:10218000EFFC03001800BD4602B080BDFFB7FFFFA3
:1021900090B5ABB000AF78607B681B68DB69A422A8
:1021A000B9180B607B681B681B68A02039180B608E
:1021B0007B681B689B689C2179180B601100BB1819
:1021C0001B68994A13409822BC182360BB181B68EF
:1021D000002B14D17B181B68202213400FD03B1812
:1021E0001B68202213400AD07B685B6E002B00D155
:1021F00096E27B685B6E7A681000984790E29823BD
:10220000FB181B68002B00D114E19C23FB181B68F2
:102210000122134006D1A023FB181B68834A1340F8
:1022200000D107E1A423FB181B680122134012D040
:10223000A023FB181A6880235B0013400BD07B6837
:102240001B6801221A627B6880229B5801221A4374
:102250007B6880215A50A423FB181B68022213407C
:1022600011D09C23FB181B68012213400BD07B6804
:102270001B6802221A627B6880229B5804221A4340
:102280007B6880215A50A423FB181B68042213404A
:1022900011D09C23FB181B68012213400BD07B68D4
:1022A0001B6804221A627B6880229B5802221A4310
:1022B0007B6880215A50A423FB181B680822134016
:1022C00017D0A023FB181B682022134005D19C23A4
:1022D000FB181B68012213400BD07B681B68082287
:1022E0001A627B6880229B5808221A437B688021EF
:1022F0005A50A423FB181A6880231B01134013D0E3
:10230000A023FB181A688023DB0413400CD07B68E1
:102310001B68802212011A627B6880229B5820224F
:102320001A437B6880215A507B6880229B58002B7F
:1023300000D1F7E1A423FB181B68202213400ED024
:10234000A023FB181B682022134008D07B685B6E1B
:10235000002B04D07B685B6E7A68100098477B681E
:1023600080229B5894217A1813607B681B689B68B5
:1023700040221340402B04D07B181B6828221340B6
:1023800047D07B68180000F0F7FC7B681B689B68EF
:1023900040221340402B37D1EFF310833B663B6E56
:1023A00090203A18136001237B667B6E83F31088BC
:1023B000C0467B681B689A687B681B6840218A431B
:1023C0009A603B181B68BB66BB6E83F31088C046DF
:1023D0007B681B6F002B12D07B681B6F144A5A63FB
:1023E0007B681B6F1800FEF723FB031E1AD07B6867
:1023F0001B6F5A6B7B681B6F1800904712E07B685D
:10240000180000F0A5F90DE07B68180000F0A0F9B5
:1024100008E07B68180000F09BF97B6880220021AF
:1024200099507FE1C0467DE10F08000020010004C3
:102430003D2E00087B681B6E012B00D031E1A423E8
:10244000FB181B681022134000D12AE1A023FB18BF
:102450001B681022134000D123E17B681B68102207
:102460001A627B681B689B6840221340402B00D097
:102470009BE07B681B6F1B685A687E217B181A8063
:102480007B181B88002B00D14EE17B6858229B5A99
:102490007A1812889A4200D346E17B687A185A214A
:1024A00012885A527B681B6F9B69202B6ED0EFF30A
:1024B00010833B633B6BBB6701237B637B6B83F3C5
:1024C0001088C0467B681B681A687B681B689A493D
:1024D0000A401A60BB6FBB63BB6B83F31088C046B6
:1024E000EFF31083FB63FB6B7B6701233B643B6C67
:1024F00083F31088C0467B681B689A687B681B68FA
:1025000001218A439A607B6F7B647B6C83F3108824
:10251000C046EFF31083BB64BB6C3B670123FB64D5
:10252000FB6C83F31088C0467B681B689A687B68E5
:102530001B6840218A439A603B6F3B653B6D83F388
:102540001088C0467B682022DA677B6800221A6602
:10255000EFF310837B657B6DFB660123BB65BB6D71
:1025600083F31088C0467B681B681A687B681B6809
:1025700010218A431A60FB6EFB65FB6D83F31088A4
:10258000C0467B681B6F1800FEF71AFA7B6858225A
:102590009A5A7B685A215B5A9BB2D31A9AB27B68CB
:1025A0001100180000F0DCF8BEE07B685822995A50
:1025B0007B685A229B5A9AB28E203B188A1A1A803C
:1025C0007B685A229B5A9BB2002B00D1AEE03B188D
:1025D0001B88002B00D1A9E0EFF31083FB60FB68A0
:1025E00088243A19136001233B613B6983F3108807
:1025F000C0467B681B681A687B681B684F490A40A5
:102600001A603B191B687B617B6983F31088C046A5
:10261000EFF31083BB61BB6984243A191360012373
:10262000FB61FB6983F31088C0467B681B689A686E
:102630007B681B6801218A439A603B191B683B62D7
:102640003B6A83F31088C0467B682022DA677B6888
:1026500000221A667B6800225A66EFF310837B62C1
:102660007B6A80243A1913600123BB62BB6A83F33F
:102670001088C0467B681B681A687B681B6810213D
:102680008A431A603B191B68FB62FB6A83F310885C
:10269000C0463B181A887B681100180000F060F8EB
:1026A00044E0A423FB181A6880235B03134010D076
:1026B0009C23FB181A688023DB03134009D07B6836
:1026C0001B68802252031A627B68180000F0F8FB36
:1026D0002FE0A423FB181B68802213400FD0A023F7
:1026E000FB181B688022134009D07B689B6E002B6F
:1026F0001ED07B689B6E7A681000984718E0A42370
:10270000FB181B684022134013D0A023FB181B6842
:10271000402213400DD07B68180000F0A6FB08E0B3
:10272000C04606E0C04604E0C04602E0C04600E005
:10273000C046BD462BB090BDFFFEFFFFDFFEFFFF92
:1027400080B582B000AF7860C046BD4602B080BDA3
:1027500080B582B000AF7860C046BD4602B080BD93
:1027600080B582B000AF78600A00BB1C1A80C046FA
:10277000BD4602B080BD000080B588B000AF786073
:102780001E23FB1800221A707B689A687B681B69FD
:102790001A437B685B691A437B68DB6913437B617F
:1027A0007B681B681B688D4A134019007B681B6897
:1027B0007A690A431A607B681B685B68884A134021
:1027C00019007B68DA687B681B680A435A607B687B
:1027D0009B697B617B681B6A7A6913437B617B68B9
:1027E0001B689B687F4A134019007B681B687A69E5
:1027F0000A439A607B681B687B4A934227D17B4BD4
:102800001B6B03221340032B0DD01BD8022B14D0BB
:1028100018D8002B02D0012B0AD013E01F23FB187D
:1028200000221A7021E01F23FB1802221A701CE0FC
:102830001F23FB1804221A7017E01F23FB1808221D
:102840001A7012E01F23FB1810221A700DE07B682B
:102850001B68674A934204D11F23FB1800221A7099
:1028600003E01F23FB1810221A707B68DA698023AB
:102870001B029A425DD11F23FB181B78082B15D031
:1028800018DC042B0DD015DC002B02D0022B05D058
:1028900010E0FEF79FFF0300BB6112E0554BBB61E8
:1028A0000FE0FEF70DFF0300BB610AE080231B026F
:1028B000BB6106E00023BB611E23FB1801221A70D6
:1028C000C046BB69002B00D17BE0BB695A007B6826
:1028D0005B685B08D2187B685B6819001000FDF725
:1028E00013FC03009BB23B613B690F2B1CD93A6977
:1028F00080235B029A4217D23B699AB20E203B18A2
:102900000F218A431A803B695B089BB20722134060
:1029100099B23B183A1812880A431A807B681B68E0
:102920003A181288DA604CE01E23FB1801221A7054
:1029300047E01F23FB181B78082B15D018DC042B4D
:102940000DD015DC002B02D0022B05D010E0FEF7D5
:1029500041FF0300BB6112E0264BBB610FE0FEF7B5
:10296000AFFE0300BB610AE080231B02BB6106E0EF
:102970000023BB611E23FB1801221A70C046BB69ED
:10298000002B1ED07B685B685A08BB69D2187B6835
:102990005B6819001000FDF7B7FB03009BB23B61B9
:1029A0003B690F2B09D93A6980235B029A4204D212
:1029B0007B681B683A69DA6003E01E23FB1801227A
:1029C0001A707B6800225A667B6800229A661E2372
:1029D000FB181B781800BD4608B080BDF369FFEFF7
:1029E000FFCFFFFFFFF4FFFF00380140001002405F
:1029F0000044004000127A0080B582B000AF7860D9
:102A00007B685B6A012213400BD07B681B685B68A4
:102A10004A4A134019007B689A6A7B681B680A431C
:102A20005A607B685B6A022213400BD07B681B688C
:102A30005B68434A134019007B68DA6A7B681B684D
:102A40000A435A607B685B6A042213400BD07B68A0
:102A50001B685B683B4A134019007B681A6B7B68F4
:102A60001B680A435A607B685B6A082213400BD0DC
:102A70007B681B685B68344A134019007B685A6B9B
:102A80007B681B680A435A607B685B6A10221340AC
:102A90000BD07B681B689B682C4A134019007B682D
:102AA0009A6B7B681B680A439A607B685B6A20228A
:102AB00013400BD07B681B689B68254A13401900A4
:102AC0007B68DA6B7B681B680A439A607B685B6A89
:102AD000402213401DD07B681B685B681D4A134071
:102AE00019007B681A6C7B681B680A435A607B6814
:102AF0001A6C80235B039A420BD17B681B685B686E
:102B0000154A134019007B685A6C7B681B680A439E
:102B10005A607B685B6A802213400BD07B681B681D
:102B20005B680E4A134019007B689A6C7B681B68CF
:102B30000A435A60C046BD4602B080BDFFFFFDFF9C
:102B4000FFFFFEFFFFFFFBFFFF7FFFFFFFEFFFFF2A
:102B5000FFDFFFFFFFFFEFFFFFFF9FFFFFFFF7FF1D
:102B600080B586B002AF78607B68802200219950E2
:102B7000FDF73EFE0300FB607B681B681B680822B4
:102B80001340082B0CD1FB68802291037868174A08
:102B90000092002200F02CF8031E01D0032321E054
:102BA0007B681B681B6804221340042B0CD1FB6854
:102BB0008022D10378680D4A0092002200F018F8B4
:102BC000031E01D003230DE07B6820229A677B68F7
:102BD0002022DA677B6800221A667B687422002153
:102BE000995400231800BD4604B080BDFFFFFF01CB
:102BF00080B594B000AFF860B9603B60FB1D1A70FF
:102C0000A3E0BB6D013300D19FE0FDF7F1FD0200B1
:102C10003B68D31ABA6D9A4202D3BB6D002B3DD1EB
:102C2000EFF31083BB62BB6A7B640123FB62FB6A28
:102C300083F31088C046FB681B681A68FB681B6832
:102C40004C490A401A607B6C3B633B6B83F31088F2
:102C5000C046EFF310837B637B6B3B640123BB6354
:102C6000BB6B83F31088C046FB681B689A68FB68DF
:102C70001B6801218A439A603B6CFB63FB6B83F307
:102C80001088C046FB6820229A67FB682022DA671A
:102C9000FB68742200219954032367E0FB681B68DA
:102CA0001B680422134050D0FB681B68DA6980233C
:102CB0001B011A4080231B019A4246D1FB681B6806
:102CC000802212011A62EFF310833B613B69FB64BF
:102CD00001237B617B6983F31088C046FB681B6816
:102CE0001A68FB681B6823490A401A60FB6CBB61C9
:102CF000BB6983F31088C046EFF31083FB61FB6967
:102D0000BB6401233B623B6A83F31088C046FB68C7
:102D10001B689A68FB681B6801218A439A60BB6C38
:102D20007B627B6A83F31088C046FB6820229A6727
:102D3000FB682022DA67FB68802220219950FB681B
:102D4000742200219954032310E0FB681B68DB699F
:102D5000BA681340BA68D31A5A425341DBB21A0018
:102D6000FB1D1B789A4200D14BE700231800BD469B
:102D700014B080BD5FFEFFFF80B58EB000AF7860FD
:102D8000EFF310837B617B697B630123BB61BB69CC
:102D900083F31088C0467B681B681A687B681B68D1
:102DA00025490A401A607B6BFB61FB6983F310883D
:102DB000C046EFF310833B623B6A3B6301237B62B7
:102DC0007B6A83F31088C0467B681B689A687B68BF
:102DD0001B6801218A439A603B6BBB62BB6A83F329
:102DE0001088C0467B681B6E012B18D1EFF310834F
:102DF000BB60BB68FB620123FB60FB6883F3108848
:102E0000C0467B681B681A687B681B6810218A4370
:102E10001A60FB6A3B613B6983F31088C0467B689C
:102E20002022DA677B6800221A667B6800225A66D5
:102E3000C046BD460EB080BDDFFEFFFF80B584B04A
:102E400000AF78607B685B6AFB60FB685A220021F8
:102E50009952FB68522200219952FB681800FFF733
:102E600077FCC046BD4604B080BD80B586B000AFDB
:102E70007860EFF31083BB60BB687B610123FB606C
:102E8000FB6883F31088C0467B681B681A687B6800
:102E90001B6840218A431A607B693B613B6983F36D
:102EA0001088C0467B6820229A677B6800229A6659
:102EB0007B681800FFF744FCC046BD4606B080BDE5
:102EC00080B582B000AF7860C046BD4602B080BD1C
:102ED00080B582B000AF78600A00BB1C1A80C04683
:102EE000BD4602B080BD80B582B000AF78600A00F8
:102EF000BB1C1A80C046BD4602B080BD80B582B002
:102F000000AF78600A00BB1C1A80C046BD4602B004
:102F100080BDB0B584B000AF78607B681A697B680B
:102F20009B8A0F257C1919001000FDF72FFF030065
:102F300023707B689B787A1912789A420BD07B6851
:102F40007A1912789A707B680122DA70FDF750FCCA
:102F500002007B689A607B68DB78002B0ED0FDF75F
:102F600047FC02007B689B68D31A0E2B06D97B684E
:102F70009A787B681A707B680022DA707B681A780E
:102F80007B685B789A4235D07B681B78002B10D128
:102F90007B6801221A717B681A697B689B8A190019
:102FA000100000F02DFAFDF723FC02007B68DA60C8
:102FB0001CE0FDF71DFC02007B68DB68D21AFA23D7
:102FC0009B009A4207D87B681A697B689B8A190024
:102FD0001000FFF77DFF7B681A697B689B8A1900E8
:102FE0001000FFF780FF7B6800221A717B681A7857
:102FF0007B685A707B681B79002B14D0FDF7F8FBB7
:1030000002007B68DB68D21AFA23DB009A420AD3FB
:103010007B681A697B689B8A19001000FFF76EFFB6
:103020007B6800221A71C046BD4604B0B0BD80B5B1
:1030300084B000AFF860B960BB1D1A80FB68BA6845
:103040001A61FB68BA1D12889A82C046BD4604B058
:1030500080BD84B0F0B59DB018AF28243C19206025
:103060006160A260E3600B23FB1800221A7000234A
:10307000FB6007E03A00FB68D31800221A70FB6877
:103080000133FB60FB68072BF4DD2823FC180B23BE
:10309000FB181E783D006B461800230008335C22A5
:1030A000190000F0E9FC226863683100280000F094
:1030B0007BFCC046BD4605B0F0BC08BC04B0184758
:1030C00084B0F0B59FB018AF30243C192060616027
:1030D000A260E360AC4BFF22DA71AB4BDA79AA4B0A
:1030E0009A71A94B9A79A84B5A71A74B5A79A64B5A
:1030F0001A71A54B1A79A44BDA70A34BDA78A24B5C
:103100009A70A14B9A78A04B5A709F4B5A789E4B5D
:103110001A709D4B7E229A739B4B9A7B9A4B5A73E3
:10312000994B5A7B984B1A73974B1A7B964BDA72D2
:10313000954BDA7A944B9A72934B9A7A924B5A72D5
:10314000914B3C225A75904B5A7D8F4B1A758E4B82
:103150001A7D8D4BDA748C4BDA7C8B4B9A748A4BCC
:1031600018221A77884B1A7F874BDA76874BFF2213
:103170001A70864B7E225A70844B3C229A70834B85
:103180001822DA70824B1B78032B00D1B5E000DDEA
:10319000EAE0022B00D178E000DDE5E0002B02D070
:1031A000012B39D0E0E0FDF723FB0200794B1B68CF
:1031B000D31AC822934200D2D8E000237B611FE0DB
:1031C000714A7B69D318183319783A007B69D31890
:1031D0000A1C1A706D4BDE783023FC183D006B46DC
:1031E0001800230008335C22190000F045FC226817
:1031F00063683100280000F0D7FB7B6901337B61F5
:103200007B69072BDCDDFDF7F3FA0200614B1A60E6
:103210005F4B01221A70A9E0FDF7EAFA02005D4B4C
:103220001B68D31AC822934200D2A1E000233B615D
:103230001FE0554A3B69D318103319783A003B69AF
:10324000D3180A1C1A70514B9E783023FC183D008D
:103250006B461800230008335C22190000F00CFCB8
:10326000226863683100280000F09EFB3B6901334F
:103270003B613B69072BDCDDFDF7BAFA0200454BE9
:103280001A60434B02221A7072E0FDF7B1FA020095
:10329000404B1B68D31AC82293426BD30023FB60B8
:1032A0001FE0394AFB68D318083319783A00FB68E5
:1032B000D3180A1C1A70354B5E783023FC183D0079
:1032C0006B461800230008335C22190000F0D4FB81
:1032D000226863683100280000F066FBFB68013358
:1032E000FB60FB68072BDCDDFDF782FA0200294B4F
:1032F0001A60274B03221A703CE0FDF779FA0200AE
:10330000244B1B68D31AC822934235D30023BB60D9
:103310001EE01D4ABB68D31819783A00BB68D31861
:103320000A1C1A70194B1E783023FC183D006B469E
:103330001800230008335C22190000F09DFB22686E
:1033400063683100280000F02FFBBB680133BB60CD
:10335000BB68072BDDDDFDF74BFA02000D4B1A6051
:103360000B4B00221A7007E0C04606E0C04604E09E
:10337000C04602E0C04600E0C046C046BD4607B0B9
:10338000F0BC08BC04B018473401002054010020F0
:103390002C0100203001002080B582B000AF144B1A
:1033A00003221A7000237B6018E0124A7B68D3184E
:1033B00000221A7000233B600AE00F4A7B68DB00A2
:1033C000D2183B68D31800221A703B6801333B6067
:1033D0003B68072BF1DD7B6801337B607B68032B47
:1033E000E3DD064B03221A70C046BD4602B080BD25
:1033F0005801002054010020340100202C0100203D
:1034000080B582B000AF78600A00BB1C1A80104BF8
:103410001B78032B12D015DC022B0CD012DC002BF6
:1034200002D0012B04D00DE0094B01221A700AE0F2
:1034300000F08AFA07E0FFF7AFFF04E0044B002238
:103440001A7000E0C046C046BD4602B080BDC0460E
:103450005801002084B0B0B598B016AF0400042025
:1034600018254019C019016042608360FB1D221CB1
:103470001A70FB1D1B78032B41D053DC022B2BD081
:1034800050DC002B02D0012B13D04BE00423182278
:103490009B18DC196B4618002300103354221900C6
:1034A00000F0EAFA20686168A268E368FFF7D1FDDE
:1034B00039E0042318229B18DC196B4618002300FE
:1034C00010335422190000F0D7FA20686168A2680E
:1034D000E36800F02FF826E0042318229B18DC197B
:1034E0006B461800230010335422190000F0C4FA70
:1034F00020686168A268E36800F05EF813E00423C6
:1035000018229B18DC196B46180023001033542234
:10351000190000F0B1FA20686168A268E368FFF75B
:10352000CFFD00E0C046C046BD4602B0B0BC08BCFE
:1035300004B0184784B0F0B59FB018AF30243C19E0
:1035400020606160A260E36000237B6129E00023CA
:103550003B6107E03A1D7B69D318FF221A703B6973
:1035600001333B613B69072BF4DD80227B691A4103
:103570000F217B181A703023FC187B181E783D1D14
:103580006B461800230008335C22190000F074FA1F
:10359000226863683100280000F006FA7B69013375
:1035A0007B617B69072BD2DDC046C046BD4607B0B4
:1035B000F0BC08BC04B0184784B0F0B5A1B018AF97
:1035C00038243C1920606160A260E360D74B1B780F
:1035D000022B00D11BE100DD99E1002B02D0012B71
:1035E00071D094E10C243B1900221A6000225A6029
:1035F000CF4BFF221A70FDF7FBF80200CD4B1B6882
:10360000D31A6422934200D283E1CB4B1B78002B68
:1036100027D0CA4B1B6820003A18FF21D154C44B55
:103620001E783823FC183D186B4618002300083319
:103630005C22190000F020FA22686368310028003B
:1036400000F0B2F90C203B18DB79FF2B03D1BA4B09
:1036500000221A7031E0B94B1B685A1CB74B1A6034
:103660002BE0B64B1B685A1EB44B1A60B34B1B6859
:103670000C203A18FF21D154AD4B1E783823FC188A
:103680003D186B461800230008335C22190000F037
:10369000F3F9226863683100280000F085F90C20F6
:1036A0003B181B78FF2B08D1A34B01221A70A34BA8
:1036B00000221A609D4B01221A70FDF799F8020052
:1036C0009C4B1A6025E19A4BFF221A709C4B1B7889
:1036D000002B25D10023FB6107E0994AFB69D31831
:1036E00001221A70FB690133FB61FB69072BF4DDD2
:1036F0008F4B1E783823FC18914D6B461800230021
:1037000008335C22190000F0B7F9226863683100C1
:10371000280000F049F9FDF76BF80200854B1A60AC
:10372000FDF766F80200834B1B68D31A64229342AC
:1037300000D2F0E0804B1B78002B2ED00023BB6121
:103740000DE07F4ABB69D3181B78DB18D9B27C4ADD
:10375000BB69D3180A1C1A70BB690133BB61BB6912
:10376000072BEEDD724B1E783823FC18744D6B4628
:103770001800230008335C22190000F07DF922684C
:1037800063683100280000F00FF96D4B1B78802B27
:1037900037D1694B00221A7033E000237B610DE0C2
:1037A000674A7B69D3181B785B08D9B2644A7B6986
:1037B000D3180A1C1A707B6901337B617B69072B64
:1037C000EEDD5B4B1E783823FC185D4D6B46180010
:1037D000230008335C22190000F04EF92268636868
:1037E0003100280000F0E0F8554B1B78002B08D181
:1037F0004F4B00221A70504B01221A704B4B022281
:103800001A70FCF7F5FF02004A4B1A6083E03B1D7B
:103810004C4A03CA03C3464B1B78002B1AD1444BB6
:1038200001221A70424B1E783823FC183D1D6B464E
:103830001800230008335C22190000F01DF92268EB
:1038400063683100280000F0AFF8FCF7D1FF0200F8
:10385000384B1A60FCF7CCFF0200364B1B68D31ABA
:103860006422934259D3344B1B78002B20D0304B29
:103870001B78DB18DAB22E4B1A702D4B1E783823CA
:10388000FC183D1D6B461800230008335C2219000C
:1038900000F0F2F8226863683100280000F084F834
:1038A000234B1B78802B2CD1234B00221A7028E04D
:1038B0001F4B1B785B08DAB21D4B1A701C4B1E782D
:1038C0003823FC183D1D6B461800230008335C228A
:1038D000190000F0D1F8226863683100280000F078
:1038E00063F8134B1B78012B0BD1144B00221A6089
:1038F000114B01221A700D4B00221A700C4B002242
:103900001A70FCF775FF02000A4B1A6005E0C0460A
:1039100004E0C04602E0C04600E0C046C046BD46E6
:1039200009B0F0BC08BC04B01847C04659010020DB
:10393000600100205C0100205A0100206C01002081
:1039400064010020D43A000880B582B000AF104B6B
:1039500002221A7000237B6007E00E4A7B68D318AE
:1039600000221A707B6801337B607B68072BF4DDD3
:10397000094B00221A60094B01221A70084B0022E1
:103980001A70084B00221A70C046BD4602B080BDB6
:1039900058010020640100206C0100205A01002021
:1039A000600100205901002082B080B586B000AFD0
:1039B00078600800202179180A604B60FB1C021C0B
:1039C0001A700823FB18FA1C12781A7001237B6105
:1039D0000DE07B69013B7A68D31819780823FA183F
:1039E0007B69D3180A1C1A707B6901337B617B6980
:1039F000082BEEDD9023DB05002240211800FDF7A7
:103A0000E2F90823F9182023F81864230922FEF7A5
:103A10009DF89023DB05012240211800FDF7D3F922
:103A2000C046BD4606B080BC08BC02B018470000C6
:103A300070B500260C4D0D4C641BA410A64209D194
:103A4000002600F02BF80A4D0A4C641BA410A64275
:103A500005D170BDB300EB5898470136EEE7B300CF
:103A6000EB5898470136F2E7F43A0008F43A0008B8
:103A7000F43A0008F83A0008002310B59A4200D141
:103A800010BDCC5CC4540133F8E7030082189342A4
:103A900000D1704719700133F9E70000F8B5C0464E
:103AA000F8BC08BC9E467047F8B5C046F8BC08BCD8
:043AB0009E46704777
:103AB40002030405060708090A0B0C0D0E0F10106B
:103AC4000102030405060708090A0B0C0D0E0F106A
:103AD400FFFFFFFFFFFFFFFF0000000000000000EA
:103AE40001020304060708090000000001020304A0
:043AF400E9000008DD
:043AF800C100000801
:0C3AFC0000127A0004000000010000002D
:04000005080006B930
:00000001FF
